{
  "contractName": "ERC3525",
  "abi": [
    {
      "inputs": [
        {
          "internalType": "string",
          "name": "name_",
          "type": "string"
        },
        {
          "internalType": "string",
          "name": "symbol_",
          "type": "string"
        },
        {
          "internalType": "uint8",
          "name": "decimals_",
          "type": "uint8"
        }
      ],
      "stateMutability": "nonpayable",
      "type": "constructor"
    },
    {
      "anonymous": false,
      "inputs": [
        {
          "indexed": true,
          "internalType": "address",
          "name": "_owner",
          "type": "address"
        },
        {
          "indexed": true,
          "internalType": "address",
          "name": "_approved",
          "type": "address"
        },
        {
          "indexed": true,
          "internalType": "uint256",
          "name": "_tokenId",
          "type": "uint256"
        }
      ],
      "name": "Approval",
      "type": "event"
    },
    {
      "anonymous": false,
      "inputs": [
        {
          "indexed": true,
          "internalType": "address",
          "name": "_owner",
          "type": "address"
        },
        {
          "indexed": true,
          "internalType": "address",
          "name": "_operator",
          "type": "address"
        },
        {
          "indexed": false,
          "internalType": "bool",
          "name": "_approved",
          "type": "bool"
        }
      ],
      "name": "ApprovalForAll",
      "type": "event"
    },
    {
      "anonymous": false,
      "inputs": [
        {
          "indexed": true,
          "internalType": "uint256",
          "name": "_tokenId",
          "type": "uint256"
        },
        {
          "indexed": true,
          "internalType": "address",
          "name": "_operator",
          "type": "address"
        },
        {
          "indexed": false,
          "internalType": "uint256",
          "name": "_value",
          "type": "uint256"
        }
      ],
      "name": "ApprovalValue",
      "type": "event"
    },
    {
      "anonymous": false,
      "inputs": [
        {
          "indexed": true,
          "internalType": "address",
          "name": "metadataDescriptor",
          "type": "address"
        }
      ],
      "name": "SetMetadataDescriptor",
      "type": "event"
    },
    {
      "anonymous": false,
      "inputs": [
        {
          "indexed": true,
          "internalType": "uint256",
          "name": "_tokenId",
          "type": "uint256"
        },
        {
          "indexed": true,
          "internalType": "uint256",
          "name": "_oldSlot",
          "type": "uint256"
        },
        {
          "indexed": true,
          "internalType": "uint256",
          "name": "_newSlot",
          "type": "uint256"
        }
      ],
      "name": "SlotChanged",
      "type": "event"
    },
    {
      "anonymous": false,
      "inputs": [
        {
          "indexed": true,
          "internalType": "address",
          "name": "_from",
          "type": "address"
        },
        {
          "indexed": true,
          "internalType": "address",
          "name": "_to",
          "type": "address"
        },
        {
          "indexed": true,
          "internalType": "uint256",
          "name": "_tokenId",
          "type": "uint256"
        }
      ],
      "name": "Transfer",
      "type": "event"
    },
    {
      "anonymous": false,
      "inputs": [
        {
          "indexed": true,
          "internalType": "uint256",
          "name": "_fromTokenId",
          "type": "uint256"
        },
        {
          "indexed": true,
          "internalType": "uint256",
          "name": "_toTokenId",
          "type": "uint256"
        },
        {
          "indexed": false,
          "internalType": "uint256",
          "name": "_value",
          "type": "uint256"
        }
      ],
      "name": "TransferValue",
      "type": "event"
    },
    {
      "inputs": [],
      "name": "metadataDescriptor",
      "outputs": [
        {
          "internalType": "contract IERC3525MetadataDescriptor",
          "name": "",
          "type": "address"
        }
      ],
      "stateMutability": "view",
      "type": "function"
    },
    {
      "inputs": [
        {
          "internalType": "bytes4",
          "name": "interfaceId",
          "type": "bytes4"
        }
      ],
      "name": "supportsInterface",
      "outputs": [
        {
          "internalType": "bool",
          "name": "",
          "type": "bool"
        }
      ],
      "stateMutability": "view",
      "type": "function"
    },
    {
      "inputs": [],
      "name": "name",
      "outputs": [
        {
          "internalType": "string",
          "name": "",
          "type": "string"
        }
      ],
      "stateMutability": "view",
      "type": "function"
    },
    {
      "inputs": [],
      "name": "symbol",
      "outputs": [
        {
          "internalType": "string",
          "name": "",
          "type": "string"
        }
      ],
      "stateMutability": "view",
      "type": "function"
    },
    {
      "inputs": [],
      "name": "valueDecimals",
      "outputs": [
        {
          "internalType": "uint8",
          "name": "",
          "type": "uint8"
        }
      ],
      "stateMutability": "view",
      "type": "function"
    },
    {
      "inputs": [
        {
          "internalType": "uint256",
          "name": "tokenId_",
          "type": "uint256"
        }
      ],
      "name": "ownerOf",
      "outputs": [
        {
          "internalType": "address",
          "name": "owner_",
          "type": "address"
        }
      ],
      "stateMutability": "view",
      "type": "function"
    },
    {
      "inputs": [
        {
          "internalType": "uint256",
          "name": "tokenId_",
          "type": "uint256"
        }
      ],
      "name": "slotOf",
      "outputs": [
        {
          "internalType": "uint256",
          "name": "",
          "type": "uint256"
        }
      ],
      "stateMutability": "view",
      "type": "function"
    },
    {
      "inputs": [],
      "name": "contractURI",
      "outputs": [
        {
          "internalType": "string",
          "name": "",
          "type": "string"
        }
      ],
      "stateMutability": "view",
      "type": "function"
    },
    {
      "inputs": [
        {
          "internalType": "uint256",
          "name": "slot_",
          "type": "uint256"
        }
      ],
      "name": "slotURI",
      "outputs": [
        {
          "internalType": "string",
          "name": "",
          "type": "string"
        }
      ],
      "stateMutability": "view",
      "type": "function"
    },
    {
      "inputs": [
        {
          "internalType": "uint256",
          "name": "tokenId_",
          "type": "uint256"
        }
      ],
      "name": "tokenURI",
      "outputs": [
        {
          "internalType": "string",
          "name": "",
          "type": "string"
        }
      ],
      "stateMutability": "view",
      "type": "function"
    },
    {
      "inputs": [
        {
          "internalType": "uint256",
          "name": "tokenId_",
          "type": "uint256"
        },
        {
          "internalType": "address",
          "name": "operator_",
          "type": "address"
        }
      ],
      "name": "allowance",
      "outputs": [
        {
          "internalType": "uint256",
          "name": "",
          "type": "uint256"
        }
      ],
      "stateMutability": "view",
      "type": "function"
    },
    {
      "inputs": [
        {
          "internalType": "address",
          "name": "owner_",
          "type": "address"
        }
      ],
      "name": "balanceOf",
      "outputs": [
        {
          "internalType": "uint256",
          "name": "balance",
          "type": "uint256"
        }
      ],
      "stateMutability": "view",
      "type": "function"
    },
    {
      "inputs": [
        {
          "internalType": "uint256",
          "name": "tokenId_",
          "type": "uint256"
        }
      ],
      "name": "balanceOf",
      "outputs": [
        {
          "internalType": "uint256",
          "name": "",
          "type": "uint256"
        }
      ],
      "stateMutability": "view",
      "type": "function"
    },
    {
      "inputs": [
        {
          "internalType": "uint256",
          "name": "fromTokenId_",
          "type": "uint256"
        },
        {
          "internalType": "address",
          "name": "to_",
          "type": "address"
        },
        {
          "internalType": "uint256",
          "name": "value_",
          "type": "uint256"
        }
      ],
      "name": "transferFrom",
      "outputs": [
        {
          "internalType": "uint256",
          "name": "newTokenId",
          "type": "uint256"
        }
      ],
      "stateMutability": "payable",
      "type": "function"
    },
    {
      "inputs": [
        {
          "internalType": "address",
          "name": "from_",
          "type": "address"
        },
        {
          "internalType": "address",
          "name": "to_",
          "type": "address"
        },
        {
          "internalType": "uint256",
          "name": "tokenId_",
          "type": "uint256"
        }
      ],
      "name": "transferFrom",
      "outputs": [],
      "stateMutability": "payable",
      "type": "function"
    },
    {
      "inputs": [
        {
          "internalType": "uint256",
          "name": "fromTokenId_",
          "type": "uint256"
        },
        {
          "internalType": "uint256",
          "name": "toTokenId_",
          "type": "uint256"
        },
        {
          "internalType": "uint256",
          "name": "value_",
          "type": "uint256"
        }
      ],
      "name": "transferFrom",
      "outputs": [],
      "stateMutability": "payable",
      "type": "function"
    },
    {
      "inputs": [
        {
          "internalType": "address",
          "name": "from_",
          "type": "address"
        },
        {
          "internalType": "address",
          "name": "to_",
          "type": "address"
        },
        {
          "internalType": "uint256",
          "name": "tokenId_",
          "type": "uint256"
        }
      ],
      "name": "safeTransferFrom",
      "outputs": [],
      "stateMutability": "payable",
      "type": "function"
    },
    {
      "inputs": [
        {
          "internalType": "address",
          "name": "from_",
          "type": "address"
        },
        {
          "internalType": "address",
          "name": "to_",
          "type": "address"
        },
        {
          "internalType": "uint256",
          "name": "tokenId_",
          "type": "uint256"
        },
        {
          "internalType": "bytes",
          "name": "data_",
          "type": "bytes"
        }
      ],
      "name": "safeTransferFrom",
      "outputs": [],
      "stateMutability": "payable",
      "type": "function"
    },
    {
      "inputs": [
        {
          "internalType": "address",
          "name": "to_",
          "type": "address"
        },
        {
          "internalType": "uint256",
          "name": "tokenId_",
          "type": "uint256"
        }
      ],
      "name": "approve",
      "outputs": [],
      "stateMutability": "payable",
      "type": "function"
    },
    {
      "inputs": [
        {
          "internalType": "uint256",
          "name": "tokenId_",
          "type": "uint256"
        },
        {
          "internalType": "address",
          "name": "to_",
          "type": "address"
        },
        {
          "internalType": "uint256",
          "name": "value_",
          "type": "uint256"
        }
      ],
      "name": "approve",
      "outputs": [],
      "stateMutability": "payable",
      "type": "function"
    },
    {
      "inputs": [
        {
          "internalType": "uint256",
          "name": "tokenId_",
          "type": "uint256"
        }
      ],
      "name": "getApproved",
      "outputs": [
        {
          "internalType": "address",
          "name": "",
          "type": "address"
        }
      ],
      "stateMutability": "view",
      "type": "function"
    },
    {
      "inputs": [
        {
          "internalType": "address",
          "name": "operator_",
          "type": "address"
        },
        {
          "internalType": "bool",
          "name": "approved_",
          "type": "bool"
        }
      ],
      "name": "setApprovalForAll",
      "outputs": [],
      "stateMutability": "nonpayable",
      "type": "function"
    },
    {
      "inputs": [
        {
          "internalType": "address",
          "name": "owner_",
          "type": "address"
        },
        {
          "internalType": "address",
          "name": "operator_",
          "type": "address"
        }
      ],
      "name": "isApprovedForAll",
      "outputs": [
        {
          "internalType": "bool",
          "name": "",
          "type": "bool"
        }
      ],
      "stateMutability": "view",
      "type": "function"
    },
    {
      "inputs": [],
      "name": "totalSupply",
      "outputs": [
        {
          "internalType": "uint256",
          "name": "",
          "type": "uint256"
        }
      ],
      "stateMutability": "view",
      "type": "function"
    },
    {
      "inputs": [
        {
          "internalType": "uint256",
          "name": "index_",
          "type": "uint256"
        }
      ],
      "name": "tokenByIndex",
      "outputs": [
        {
          "internalType": "uint256",
          "name": "",
          "type": "uint256"
        }
      ],
      "stateMutability": "view",
      "type": "function"
    },
    {
      "inputs": [
        {
          "internalType": "address",
          "name": "owner_",
          "type": "address"
        },
        {
          "internalType": "uint256",
          "name": "index_",
          "type": "uint256"
        }
      ],
      "name": "tokenOfOwnerByIndex",
      "outputs": [
        {
          "internalType": "uint256",
          "name": "",
          "type": "uint256"
        }
      ],
      "stateMutability": "view",
      "type": "function"
    }
  ],
  "bytecode": "0x60806040523480156200001157600080fd5b506040516200539538038062005395833981810160405281019062000037919062000318565b82600090805190602001906200004f9291906200008d565b508160019080519060200190620000689291906200008d565b5080600260006101000a81548160ff021916908360ff16021790555050505062000417565b8280546200009b90620003e1565b90600052602060002090601f016020900481019282620000bf57600085556200010b565b82601f10620000da57805160ff19168380011785556200010b565b828001600101855582156200010b579182015b828111156200010a578251825591602001919060010190620000ed565b5b5090506200011a91906200011e565b5090565b5b80821115620001395760008160009055506001016200011f565b5090565b6000604051905090565b600080fd5b600080fd5b600080fd5b600080fd5b6000601f19601f8301169050919050565b7f4e487b7100000000000000000000000000000000000000000000000000000000600052604160045260246000fd5b620001a6826200015b565b810181811067ffffffffffffffff82111715620001c857620001c76200016c565b5b80604052505050565b6000620001dd6200013d565b9050620001eb82826200019b565b919050565b600067ffffffffffffffff8211156200020e576200020d6200016c565b5b62000219826200015b565b9050602081019050919050565b60005b838110156200024657808201518184015260208101905062000229565b8381111562000256576000848401525b50505050565b6000620002736200026d84620001f0565b620001d1565b90508281526020810184848401111562000292576200029162000156565b5b6200029f84828562000226565b509392505050565b600082601f830112620002bf57620002be62000151565b5b8151620002d18482602086016200025c565b91505092915050565b600060ff82169050919050565b620002f281620002da565b8114620002fe57600080fd5b50565b6000815190506200031281620002e7565b92915050565b60008060006060848603121562000334576200033362000147565b5b600084015167ffffffffffffffff8111156200035557620003546200014c565b5b6200036386828701620002a7565b935050602084015167ffffffffffffffff8111156200038757620003866200014c565b5b6200039586828701620002a7565b9250506040620003a88682870162000301565b9150509250925092565b7f4e487b7100000000000000000000000000000000000000000000000000000000600052602260045260246000fd5b60006002820490506001821680620003fa57607f821691505b60208210811415620004115762000410620003b2565b5b50919050565b614f6e80620004276000396000f3fe6080604052600436106101815760003560e01c80634f6ccce7116100d15780639cc7f7081161008a578063c87b56dd11610064578063c87b56dd14610583578063e345e0bc146105c0578063e8a3d485146105fd578063e985e9c51461062857610181565b80639cc7f70814610501578063a22cb4651461053e578063b88d4fde1461056757610181565b80634f6ccce7146103d85780636352211e1461041557806370a0823114610452578063840f71131461048f5780638cb0a511146104ba57806395d89b41146104d657610181565b806318160ddd1161013e5780632f745c59116101185780632f745c5914610338578063310ed7f0146103755780633e7e86691461039157806342842e0e146103bc57610181565b806318160ddd146102b457806323b872dd146102df578063263f3e7e146102fb57610181565b806301ffc9a71461018657806306fdde03146101c3578063081812fc146101ee578063095ea7b31461022b57806309c3dd87146102475780630f485c0214610284575b600080fd5b34801561019257600080fd5b506101ad60048036038101906101a891906134fb565b610665565b6040516101ba9190613543565b60405180910390f35b3480156101cf57600080fd5b506101d86108d7565b6040516101e591906135f7565b60405180910390f35b3480156101fa57600080fd5b506102156004803603810190610210919061364f565b610969565b60405161022291906136bd565b60405180910390f35b61024560048036038101906102409190613704565b6109d4565b005b34801561025357600080fd5b5061026e6004803603810190610269919061364f565b610aec565b60405161027b91906135f7565b60405180910390f35b61029e60048036038101906102999190613744565b610c58565b6040516102ab91906137a6565b60405180910390f35b3480156102c057600080fd5b506102c9610c9e565b6040516102d691906137a6565b60405180910390f35b6102f960048036038101906102f491906137c1565b610cab565b005b34801561030757600080fd5b50610322600480360381019061031d919061364f565b610d0b565b60405161032f91906137a6565b60405180910390f35b34801561034457600080fd5b5061035f600480360381019061035a9190613704565b610d56565b60405161036c91906137a6565b60405180910390f35b61038f600480360381019061038a9190613814565b610e09565b005b34801561039d57600080fd5b506103a6610e2b565b6040516103b39190613883565b60405180910390f35b6103d660048036038101906103d191906137c1565b610e42565b005b3480156103e457600080fd5b506103ff60048036038101906103fa919061364f565b610e62565b60405161040c91906137a6565b60405180910390f35b34801561042157600080fd5b5061043c6004803603810190610437919061364f565b610eda565b60405161044991906136bd565b60405180910390f35b34801561045e57600080fd5b506104796004803603810190610474919061389e565b610fb5565b60405161048691906137a6565b60405180910390f35b34801561049b57600080fd5b506104a4611073565b6040516104b1919061392a565b60405180910390f35b6104d460048036038101906104cf9190613744565b611099565b005b3480156104e257600080fd5b506104eb611176565b6040516104f891906135f7565b60405180910390f35b34801561050d57600080fd5b506105286004803603810190610523919061364f565b611208565b60405161053591906137a6565b60405180910390f35b34801561054a57600080fd5b5061056560048036038101906105609190613971565b611253565b005b610581600480360381019061057c9190613ae6565b611269565b005b34801561058f57600080fd5b506105aa60048036038101906105a5919061364f565b6112cb565b6040516105b791906135f7565b60405180910390f35b3480156105cc57600080fd5b506105e760048036038101906105e29190613b69565b611440565b6040516105f491906137a6565b60405180910390f35b34801561060957600080fd5b506106126114a4565b60405161061f91906135f7565b60405180910390f35b34801561063457600080fd5b5061064f600480360381019061064a9190613ba9565b611603565b60405161065c9190613543565b60405180910390f35b60007f01ffc9a7000000000000000000000000000000000000000000000000000000007bffffffffffffffffffffffffffffffffffffffffffffffffffffffff1916827bffffffffffffffffffffffffffffffffffffffffffffffffffffffff1916148061073057507fd5358140000000000000000000000000000000000000000000000000000000007bffffffffffffffffffffffffffffffffffffffffffffffffffffffff1916827bffffffffffffffffffffffffffffffffffffffffffffffffffffffff1916145b8061079857507f80ac58cd000000000000000000000000000000000000000000000000000000007bffffffffffffffffffffffffffffffffffffffffffffffffffffffff1916827bffffffffffffffffffffffffffffffffffffffffffffffffffffffff1916145b8061080057507fe1600902000000000000000000000000000000000000000000000000000000007bffffffffffffffffffffffffffffffffffffffffffffffffffffffff1916827bffffffffffffffffffffffffffffffffffffffffffffffffffffffff1916145b8061086857507f780e9d63000000000000000000000000000000000000000000000000000000007bffffffffffffffffffffffffffffffffffffffffffffffffffffffff1916827bffffffffffffffffffffffffffffffffffffffffffffffffffffffff1916145b806108d057507f5b5e139f000000000000000000000000000000000000000000000000000000007bffffffffffffffffffffffffffffffffffffffffffffffffffffffff1916827bffffffffffffffffffffffffffffffffffffffffffffffffffffffff1916145b9050919050565b6060600080546108e690613c18565b80601f016020809104026020016040519081016040528092919081815260200182805461091290613c18565b801561095f5780601f106109345761010080835404028352916020019161095f565b820191906000526020600020905b81548152906001019060200180831161094257829003601f168201915b5050505050905090565b60006109748261169a565b600560066000848152602001908152602001600020548154811061099b5761099a613c4a565b5b906000526020600020906006020160040160009054906101000a900473ffffffffffffffffffffffffffffffffffffffff169050919050565b60006109df82610eda565b90508073ffffffffffffffffffffffffffffffffffffffff168373ffffffffffffffffffffffffffffffffffffffff161415610a50576040517f08c379a0000000000000000000000000000000000000000000000000000000008152600401610a4790613ceb565b60405180910390fd5b8073ffffffffffffffffffffffffffffffffffffffff16610a6f6116e5565b73ffffffffffffffffffffffffffffffffffffffff161480610a9e5750610a9d81610a986116e5565b611603565b5b610add576040517f08c379a0000000000000000000000000000000000000000000000000000000008152600401610ad490613d7d565b60405180910390fd5b610ae783836116ed565b505050565b60606000610af86117cb565b9050600073ffffffffffffffffffffffffffffffffffffffff16600860009054906101000a900473ffffffffffffffffffffffffffffffffffffffff1673ffffffffffffffffffffffffffffffffffffffff161415610b9f576000815111610b6f5760405180602001604052806000815250610b9a565b80610b79846117e2565b604051602001610b8a929190613e25565b6040516020818303038152906040525b610c50565b600860009054906101000a900473ffffffffffffffffffffffffffffffffffffffff1673ffffffffffffffffffffffffffffffffffffffff16636c037f8a846040518263ffffffff1660e01b8152600401610bfa91906137a6565b60006040518083038186803b158015610c1257600080fd5b505afa158015610c26573d6000803e3d6000fd5b505050506040513d6000823e3d601f19601f82011682018060405250810190610c4f9190613ef5565b5b915050919050565b6000610c6c610c656116e5565b85846118ba565b610c7584611964565b9050610c8c8382610c8587610d0b565b6000611975565b610c97848284611aad565b9392505050565b6000600580549050905090565b610cbc610cb66116e5565b82611dc4565b610cfb576040517f08c379a0000000000000000000000000000000000000000000000000000000008152600401610cf290613fb0565b60405180910390fd5b610d06838383611e59565b505050565b6000610d168261169a565b6005600660008481526020019081526020016000205481548110610d3d57610d3c613c4a565b5b9060005260206000209060060201600101549050919050565b6000610d6183610fb5565b8210610da2576040517f08c379a0000000000000000000000000000000000000000000000000000000008152600401610d9990614042565b60405180910390fd5b600760008473ffffffffffffffffffffffffffffffffffffffff1673ffffffffffffffffffffffffffffffffffffffff1681526020019081526020016000206000018281548110610df657610df5613c4a565b5b9060005260206000200154905092915050565b610e1b610e146116e5565b84836118ba565b610e26838383611aad565b505050565b6000600260009054906101000a900460ff16905090565b610e5d83838360405180602001604052806000815250611269565b505050565b6000610e6c610c9e565b8210610ead576040517f08c379a0000000000000000000000000000000000000000000000000000000008152600401610ea4906140d4565b60405180910390fd5b60058281548110610ec157610ec0613c4a565b5b9060005260206000209060060201600001549050919050565b6000610ee58261169a565b6005600660008481526020019081526020016000205481548110610f0c57610f0b613c4a565b5b906000526020600020906006020160030160009054906101000a900473ffffffffffffffffffffffffffffffffffffffff169050600073ffffffffffffffffffffffffffffffffffffffff168173ffffffffffffffffffffffffffffffffffffffff161415610fb0576040517f08c379a0000000000000000000000000000000000000000000000000000000008152600401610fa790614140565b60405180910390fd5b919050565b60008073ffffffffffffffffffffffffffffffffffffffff168273ffffffffffffffffffffffffffffffffffffffff161415611026576040517f08c379a000000000000000000000000000000000000000000000000000000000815260040161101d906141d2565b60405180910390fd5b600760008373ffffffffffffffffffffffffffffffffffffffff1673ffffffffffffffffffffffffffffffffffffffff168152602001908152602001600020600001805490509050919050565b600860009054906101000a900473ffffffffffffffffffffffffffffffffffffffff1681565b60006110a484610eda565b90508073ffffffffffffffffffffffffffffffffffffffff168373ffffffffffffffffffffffffffffffffffffffff161415611115576040517f08c379a000000000000000000000000000000000000000000000000000000000815260040161110c90613ceb565b60405180910390fd5b6111266111206116e5565b85611dc4565b611165576040517f08c379a000000000000000000000000000000000000000000000000000000000815260040161115c90614264565b60405180910390fd5b611170848484611fff565b50505050565b60606001805461118590613c18565b80601f01602080910402602001604051908101604052809291908181526020018280546111b190613c18565b80156111fe5780601f106111d3576101008083540402835291602001916111fe565b820191906000526020600020905b8154815290600101906020018083116111e157829003601f168201915b5050505050905090565b60006112138261169a565b600560066000848152602001908152602001600020548154811061123a57611239613c4a565b5b9060005260206000209060060201600201549050919050565b61126561125e6116e5565b83836121c0565b5050565b61127a6112746116e5565b83611dc4565b6112b9576040517f08c379a00000000000000000000000000000000000000000000000000000000081526004016112b090613fb0565b60405180910390fd5b6112c584848484612330565b50505050565b60606112d68261169a565b60006112e06117cb565b9050600073ffffffffffffffffffffffffffffffffffffffff16600860009054906101000a900473ffffffffffffffffffffffffffffffffffffffff1673ffffffffffffffffffffffffffffffffffffffff1614156113875760008151116113575760405180602001604052806000815250611382565b80611361846117e2565b604051602001611372929190614284565b6040516020818303038152906040525b611438565b600860009054906101000a900473ffffffffffffffffffffffffffffffffffffffff1673ffffffffffffffffffffffffffffffffffffffff1663894b4c2e846040518263ffffffff1660e01b81526004016113e291906137a6565b60006040518083038186803b1580156113fa57600080fd5b505afa15801561140e573d6000803e3d6000fd5b505050506040513d6000823e3d601f19601f820116820180604052508101906114379190613ef5565b5b915050919050565b600061144b8361169a565b6004600084815260200190815260200160002060008373ffffffffffffffffffffffffffffffffffffffff1673ffffffffffffffffffffffffffffffffffffffff16815260200190815260200160002054905092915050565b606060006114b06117cb565b9050600073ffffffffffffffffffffffffffffffffffffffff16600860009054906101000a900473ffffffffffffffffffffffffffffffffffffffff1673ffffffffffffffffffffffffffffffffffffffff1614156115575760008151116115275760405180602001604052806000815250611552565b806115313061238c565b6040516020016115429291906142f4565b6040516020818303038152906040525b6115fd565b600860009054906101000a900473ffffffffffffffffffffffffffffffffffffffff1673ffffffffffffffffffffffffffffffffffffffff1663725fa09c6040518163ffffffff1660e01b815260040160006040518083038186803b1580156115bf57600080fd5b505afa1580156115d3573d6000803e3d6000fd5b505050506040513d6000823e3d601f19601f820116820180604052508101906115fc9190613ef5565b5b91505090565b6000600760008473ffffffffffffffffffffffffffffffffffffffff1673ffffffffffffffffffffffffffffffffffffffff16815260200190815260200160002060020160008373ffffffffffffffffffffffffffffffffffffffff1673ffffffffffffffffffffffffffffffffffffffff16815260200190815260200160002060009054906101000a900460ff16905092915050565b6116a3816123b9565b6116e2576040517f08c379a00000000000000000000000000000000000000000000000000000000081526004016116d990614140565b60405180910390fd5b50565b600033905090565b81600560066000848152602001908152602001600020548154811061171557611714613c4a565b5b906000526020600020906006020160040160006101000a81548173ffffffffffffffffffffffffffffffffffffffff021916908373ffffffffffffffffffffffffffffffffffffffff160217905550808273ffffffffffffffffffffffffffffffffffffffff1661178583610eda565b73ffffffffffffffffffffffffffffffffffffffff167f8c5be1e5ebec7d5bd14f71427d1e84f3dd0314c0f7b2291e5b200ac8c7c3b92560405160405180910390a45050565b606060405180602001604052806000815250905090565b6060600060016117f18461240e565b01905060008167ffffffffffffffff8111156118105761180f6139bb565b5b6040519080825280601f01601f1916602001820160405280156118425781602001600182028036833780820191505090505b509050600082602001820190505b6001156118af578080600190039150507f3031323334353637383961626364656600000000000000000000000000000000600a86061a8153600a858161189957611898614323565b5b04945060008514156118aa576118af565b611850565b819350505050919050565b60006118c68385611440565b90506118d28484611dc4565b1580156118ff57507fffffffffffffffffffffffffffffffffffffffffffffffffffffffffffffffff8114155b1561195e5781811015611947576040517f08c379a000000000000000000000000000000000000000000000000000000000815260040161193e9061439e565b60405180910390fd5b61195d8385848461195891906143ed565b611fff565b5b50505050565b600061196e612561565b9050919050565b600073ffffffffffffffffffffffffffffffffffffffff168473ffffffffffffffffffffffffffffffffffffffff1614156119e5576040517f08c379a00000000000000000000000000000000000000000000000000000000081526004016119dc90614493565b60405180910390fd5b6000831415611a29576040517f08c379a0000000000000000000000000000000000000000000000000000000008152600401611a2090614525565b60405180910390fd5b611a32836123b9565b15611a72576040517f08c379a0000000000000000000000000000000000000000000000000000000008152600401611a6990614591565b60405180910390fd5b611a82600085600086868661257c565b611a8d848484612584565b611a9783826126d1565b611aa7600085600086868661275e565b50505050565b611ab6836123b9565b611af5576040517f08c379a0000000000000000000000000000000000000000000000000000000008152600401611aec90614623565b60405180910390fd5b611afe826123b9565b611b3d576040517f08c379a0000000000000000000000000000000000000000000000000000000008152600401611b34906146b5565b60405180910390fd5b60006005600660008681526020019081526020016000205481548110611b6657611b65613c4a565b5b9060005260206000209060060201905060006005600660008681526020019081526020016000205481548110611b9f57611b9e613c4a565b5b906000526020600020906006020190508282600201541015611bf6576040517f08c379a0000000000000000000000000000000000000000000000000000000008152600401611bed90614747565b60405180910390fd5b8060010154826001015414611c40576040517f08c379a0000000000000000000000000000000000000000000000000000000008152600401611c37906147d9565b60405180910390fd5b611c9a8260030160009054906101000a900473ffffffffffffffffffffffffffffffffffffffff168260030160009054906101000a900473ffffffffffffffffffffffffffffffffffffffff16878786600101548861257c565b82826002016000828254611cae91906143ed565b9250508190555082816002016000828254611cc991906147f9565b9250508190555083857f0b2aac84f3ec956911fd78eae5311062972ff949f38412e8da39069d9f068cc685604051611d0191906137a6565b60405180910390a3611d638260030160009054906101000a900473ffffffffffffffffffffffffffffffffffffffff168260030160009054906101000a900473ffffffffffffffffffffffffffffffffffffffff16878786600101548861275e565b611d7e85858560405180602001604052806000815250612766565b611dbd576040517f08c379a0000000000000000000000000000000000000000000000000000000008152600401611db4906148c1565b60405180910390fd5b5050505050565b600080611dd083610eda565b90508073ffffffffffffffffffffffffffffffffffffffff168473ffffffffffffffffffffffffffffffffffffffff161480611e125750611e118185611603565b5b80611e5057508373ffffffffffffffffffffffffffffffffffffffff16611e3884610969565b73ffffffffffffffffffffffffffffffffffffffff16145b91505092915050565b8273ffffffffffffffffffffffffffffffffffffffff16611e7982610eda565b73ffffffffffffffffffffffffffffffffffffffff1614611ecf576040517f08c379a0000000000000000000000000000000000000000000000000000000008152600401611ec690614953565b60405180910390fd5b600073ffffffffffffffffffffffffffffffffffffffff168273ffffffffffffffffffffffffffffffffffffffff161415611f3f576040517f08c379a0000000000000000000000000000000000000000000000000000000008152600401611f36906149e5565b60405180910390fd5b6000611f4a82610d0b565b90506000611f5783611208565b9050611f6785858586868661257c565b611f726000846116ed565b611f7b83612943565b611f858584612a56565b611f8f8484612bf2565b828473ffffffffffffffffffffffffffffffffffffffff168673ffffffffffffffffffffffffffffffffffffffff167fddf252ad1be2c89b69c2b068fc378daa952ba7f163c4a11628f55a4df523b3ef60405160405180910390a4611ff885858586868661275e565b5050505050565b600073ffffffffffffffffffffffffffffffffffffffff168273ffffffffffffffffffffffffffffffffffffffff16141561206f576040517f08c379a000000000000000000000000000000000000000000000000000000000815260040161206690614a77565b60405180910390fd5b6120798284612d73565b6121175760056006600085815260200190815260200160002054815481106120a4576120a3613c4a565b5b9060005260206000209060060201600501829080600181540180825580915050600190039060005260206000200160009091909190916101000a81548173ffffffffffffffffffffffffffffffffffffffff021916908373ffffffffffffffffffffffffffffffffffffffff1602179055505b806004600085815260200190815260200160002060008473ffffffffffffffffffffffffffffffffffffffff1673ffffffffffffffffffffffffffffffffffffffff168152602001908152602001600020819055508173ffffffffffffffffffffffffffffffffffffffff16837f621b050de0ad08b51d19b48b3e6df75348c4de6bdd93e81b252ca62e28265b1b836040516121b391906137a6565b60405180910390a3505050565b8173ffffffffffffffffffffffffffffffffffffffff168373ffffffffffffffffffffffffffffffffffffffff16141561222f576040517f08c379a000000000000000000000000000000000000000000000000000000000815260040161222690614ae3565b60405180910390fd5b80600760008573ffffffffffffffffffffffffffffffffffffffff1673ffffffffffffffffffffffffffffffffffffffff16815260200190815260200160002060020160008473ffffffffffffffffffffffffffffffffffffffff1673ffffffffffffffffffffffffffffffffffffffff16815260200190815260200160002060006101000a81548160ff0219169083151502179055508173ffffffffffffffffffffffffffffffffffffffff168373ffffffffffffffffffffffffffffffffffffffff167f17307eab39ab6107e8899845ad3d59bd9653f200f220920489ca2b5937696c31836040516123239190613543565b60405180910390a3505050565b61233b848484611e59565b61234784848484612e92565b612386576040517f08c379a000000000000000000000000000000000000000000000000000000000815260040161237d90614b75565b60405180910390fd5b50505050565b60606123b28273ffffffffffffffffffffffffffffffffffffffff16601460ff16613029565b9050919050565b6000806005805490501415801561240757508160056006600085815260200190815260200160002054815481106123f3576123f2613c4a565b5b906000526020600020906006020160000154145b9050919050565b600080600090507a184f03e93ff9f4daa797ed6e38ed64bf6a1f010000000000000000831061246c577a184f03e93ff9f4daa797ed6e38ed64bf6a1f010000000000000000838161246257612461614323565b5b0492506040810190505b6d04ee2d6d415b85acef810000000083106124a9576d04ee2d6d415b85acef8100000000838161249f5761249e614323565b5b0492506020810190505b662386f26fc1000083106124d857662386f26fc1000083816124ce576124cd614323565b5b0492506010810190505b6305f5e1008310612501576305f5e10083816124f7576124f6614323565b5b0492506008810190505b612710831061252657612710838161251c5761251b614323565b5b0492506004810190505b60648310612549576064838161253f5761253e614323565b5b0492506002810190505b600a8310612558576001810190505b80915050919050565b600061256d6003613265565b612577600361327b565b905090565b505050505050565b60006040518060c00160405280848152602001838152602001600081526020018573ffffffffffffffffffffffffffffffffffffffff168152602001600073ffffffffffffffffffffffffffffffffffffffff168152602001600067ffffffffffffffff8111156125f8576125f76139bb565b5b6040519080825280602002602001820160405280156126265781602001602082028036833780820191505090505b50815250905061263581613289565b61263f8484612bf2565b828473ffffffffffffffffffffffffffffffffffffffff16600073ffffffffffffffffffffffffffffffffffffffff167fddf252ad1be2c89b69c2b068fc378daa952ba7f163c4a11628f55a4df523b3ef60405160405180910390a4816000847fe4f48c240d3b994948aa54f3e2f5fca59263dfe1d52b6e4cf39a5d249b5ccb6560405160405180910390a450505050565b8060056006600085815260200190815260200160002054815481106126f9576126f8613c4a565b5b9060005260206000209060060201600201600082825461271991906147f9565b925050819055508160007f0b2aac84f3ec956911fd78eae5311062972ff949f38412e8da39069d9f068cc68360405161275291906137a6565b60405180910390a35050565b505050505050565b60008061277285610eda565b90506127938173ffffffffffffffffffffffffffffffffffffffff166133a4565b801561284357508073ffffffffffffffffffffffffffffffffffffffff166301ffc9a77e9ce20b000000000000000000000000000000000000000000000000000000006040518263ffffffff1660e01b81526004016127f29190614ba4565b60206040518083038186803b15801561280a57600080fd5b505afa15801561281e573d6000803e3d6000fd5b505050506040513d601f19601f820116820180604052508101906128429190614bd4565b5b156129355760008173ffffffffffffffffffffffffffffffffffffffff16629ce20b61286d6116e5565b898989896040518663ffffffff1660e01b8152600401612891959493929190614c56565b602060405180830381600087803b1580156128ab57600080fd5b505af11580156128bf573d6000803e3d6000fd5b505050506040513d601f19601f820116820180604052508101906128e39190614cc5565b9050629ce20b60e01b7bffffffffffffffffffffffffffffffffffffffffffffffffffffffff1916817bffffffffffffffffffffffffffffffffffffffffffffffffffffffff1916149250505061293b565b60019150505b949350505050565b6000600560066000848152602001908152602001600020548154811061296c5761296b613c4a565b5b9060005260206000209060060201905060008160050180549050905060005b81811015612a405760008360050182815481106129ab576129aa613c4a565b5b9060005260206000200160009054906101000a900473ffffffffffffffffffffffffffffffffffffffff1690506004600086815260200190815260200160002060008273ffffffffffffffffffffffffffffffffffffffff1673ffffffffffffffffffffffffffffffffffffffff16815260200190815260200160002060009055508080612a3890614cf2565b91505061298b565b50816005016000612a5191906133c7565b505050565b60006005600660008481526020019081526020016000205481548110612a7f57612a7e613c4a565b5b906000526020600020906006020160030160006101000a81548173ffffffffffffffffffffffffffffffffffffffff021916908373ffffffffffffffffffffffffffffffffffffffff1602179055506000600760008473ffffffffffffffffffffffffffffffffffffffff1673ffffffffffffffffffffffffffffffffffffffff1681526020019081526020016000209050600060018260000180549050612b2791906143ed565b90506000826000018281548110612b4157612b40613c4a565b5b90600052602060002001549050600083600101600086815260200190815260200160002054905081846000018281548110612b7f57612b7e613c4a565b5b906000526020600020018190555080846001016000848152602001908152602001600020819055508360010160008681526020019081526020016000206000905583600001805480612bd457612bd3614d3b565b5b60019003818190600052602060002001600090559055505050505050565b816005600660008481526020019081526020016000205481548110612c1a57612c19613c4a565b5b906000526020600020906006020160030160006101000a81548173ffffffffffffffffffffffffffffffffffffffff021916908373ffffffffffffffffffffffffffffffffffffffff160217905550600760008373ffffffffffffffffffffffffffffffffffffffff1673ffffffffffffffffffffffffffffffffffffffff16815260200190815260200160002060000180549050600760008473ffffffffffffffffffffffffffffffffffffffff1673ffffffffffffffffffffffffffffffffffffffff168152602001908152602001600020600101600083815260200190815260200160002081905550600760008373ffffffffffffffffffffffffffffffffffffffff1673ffffffffffffffffffffffffffffffffffffffff1681526020019081526020016000206000018190806001815401808255809150506001900390600052602060002001600090919091909150555050565b6000806005600660008581526020019081526020016000205481548110612d9d57612d9c613c4a565b5b906000526020600020906006020160050180549050905060005b81811015612e85578473ffffffffffffffffffffffffffffffffffffffff166005600660008781526020019081526020016000205481548110612dfd57612dfc613c4a565b5b90600052602060002090600602016005018281548110612e2057612e1f613c4a565b5b9060005260206000200160009054906101000a900473ffffffffffffffffffffffffffffffffffffffff1673ffffffffffffffffffffffffffffffffffffffff161415612e7257600192505050612e8c565b8080612e7d90614cf2565b915050612db7565b5060009150505b92915050565b6000612eb38473ffffffffffffffffffffffffffffffffffffffff166133a4565b1561301c578373ffffffffffffffffffffffffffffffffffffffff1663150b7a02612edc6116e5565b8786866040518563ffffffff1660e01b8152600401612efe9493929190614d6a565b602060405180830381600087803b158015612f1857600080fd5b505af1925050508015612f4957506040513d601f19601f82011682018060405250810190612f469190614cc5565b60015b612fcc573d8060008114612f79576040519150601f19603f3d011682016040523d82523d6000602084013e612f7e565b606091505b50600081511415612fc4576040517f08c379a0000000000000000000000000000000000000000000000000000000008152600401612fbb90614e28565b60405180910390fd5b805181602001fd5b63150b7a0260e01b7bffffffffffffffffffffffffffffffffffffffffffffffffffffffff1916817bffffffffffffffffffffffffffffffffffffffffffffffffffffffff191614915050613021565b600190505b949350505050565b60606000600283600261303c9190614e48565b61304691906147f9565b67ffffffffffffffff81111561305f5761305e6139bb565b5b6040519080825280601f01601f1916602001820160405280156130915781602001600182028036833780820191505090505b5090507f3000000000000000000000000000000000000000000000000000000000000000816000815181106130c9576130c8613c4a565b5b60200101907effffffffffffffffffffffffffffffffffffffffffffffffffffffffffffff1916908160001a9053507f78000000000000000000000000000000000000000000000000000000000000008160018151811061312d5761312c613c4a565b5b60200101907effffffffffffffffffffffffffffffffffffffffffffffffffffffffffffff1916908160001a9053506000600184600261316d9190614e48565b61317791906147f9565b90505b6001811115613217577f3031323334353637383961626364656600000000000000000000000000000000600f8616601081106131b9576131b8613c4a565b5b1a60f81b8282815181106131d0576131cf613c4a565b5b60200101907effffffffffffffffffffffffffffffffffffffffffffffffffffffffffffff1916908160001a905350600485901c94508061321090614ea2565b905061317a565b506000841461325b576040517f08c379a000000000000000000000000000000000000000000000000000000000815260040161325290614f18565b60405180910390fd5b8091505092915050565b6001816000016000828254019250508190555050565b600081600001549050919050565b600580549050600660008360000151815260200190815260200160002081905550600581908060018154018082558091505060019003906000526020600020906006020160009091909190915060008201518160000155602082015181600101556040820151816002015560608201518160030160006101000a81548173ffffffffffffffffffffffffffffffffffffffff021916908373ffffffffffffffffffffffffffffffffffffffff16021790555060808201518160040160006101000a81548173ffffffffffffffffffffffffffffffffffffffff021916908373ffffffffffffffffffffffffffffffffffffffff16021790555060a082015181600501908051906020019061339e9291906133e8565b50505050565b6000808273ffffffffffffffffffffffffffffffffffffffff163b119050919050565b50805460008255906000526020600020908101906133e59190613472565b50565b828054828255906000526020600020908101928215613461579160200282015b828111156134605782518260006101000a81548173ffffffffffffffffffffffffffffffffffffffff021916908373ffffffffffffffffffffffffffffffffffffffff16021790555091602001919060010190613408565b5b50905061346e9190613472565b5090565b5b8082111561348b576000816000905550600101613473565b5090565b6000604051905090565b600080fd5b600080fd5b60007fffffffff0000000000000000000000000000000000000000000000000000000082169050919050565b6134d8816134a3565b81146134e357600080fd5b50565b6000813590506134f5816134cf565b92915050565b60006020828403121561351157613510613499565b5b600061351f848285016134e6565b91505092915050565b60008115159050919050565b61353d81613528565b82525050565b60006020820190506135586000830184613534565b92915050565b600081519050919050565b600082825260208201905092915050565b60005b8381101561359857808201518184015260208101905061357d565b838111156135a7576000848401525b50505050565b6000601f19601f8301169050919050565b60006135c98261355e565b6135d38185613569565b93506135e381856020860161357a565b6135ec816135ad565b840191505092915050565b6000602082019050818103600083015261361181846135be565b905092915050565b6000819050919050565b61362c81613619565b811461363757600080fd5b50565b60008135905061364981613623565b92915050565b60006020828403121561366557613664613499565b5b60006136738482850161363a565b91505092915050565b600073ffffffffffffffffffffffffffffffffffffffff82169050919050565b60006136a78261367c565b9050919050565b6136b78161369c565b82525050565b60006020820190506136d260008301846136ae565b92915050565b6136e18161369c565b81146136ec57600080fd5b50565b6000813590506136fe816136d8565b92915050565b6000806040838503121561371b5761371a613499565b5b6000613729858286016136ef565b925050602061373a8582860161363a565b9150509250929050565b60008060006060848603121561375d5761375c613499565b5b600061376b8682870161363a565b935050602061377c868287016136ef565b925050604061378d8682870161363a565b9150509250925092565b6137a081613619565b82525050565b60006020820190506137bb6000830184613797565b92915050565b6000806000606084860312156137da576137d9613499565b5b60006137e8868287016136ef565b93505060206137f9868287016136ef565b925050604061380a8682870161363a565b9150509250925092565b60008060006060848603121561382d5761382c613499565b5b600061383b8682870161363a565b935050602061384c8682870161363a565b925050604061385d8682870161363a565b9150509250925092565b600060ff82169050919050565b61387d81613867565b82525050565b60006020820190506138986000830184613874565b92915050565b6000602082840312156138b4576138b3613499565b5b60006138c2848285016136ef565b91505092915050565b6000819050919050565b60006138f06138eb6138e68461367c565b6138cb565b61367c565b9050919050565b6000613902826138d5565b9050919050565b6000613914826138f7565b9050919050565b61392481613909565b82525050565b600060208201905061393f600083018461391b565b92915050565b61394e81613528565b811461395957600080fd5b50565b60008135905061396b81613945565b92915050565b6000806040838503121561398857613987613499565b5b6000613996858286016136ef565b92505060206139a78582860161395c565b9150509250929050565b600080fd5b600080fd5b7f4e487b7100000000000000000000000000000000000000000000000000000000600052604160045260246000fd5b6139f3826135ad565b810181811067ffffffffffffffff82111715613a1257613a116139bb565b5b80604052505050565b6000613a2561348f565b9050613a3182826139ea565b919050565b600067ffffffffffffffff821115613a5157613a506139bb565b5b613a5a826135ad565b9050602081019050919050565b82818337600083830152505050565b6000613a89613a8484613a36565b613a1b565b905082815260208101848484011115613aa557613aa46139b6565b5b613ab0848285613a67565b509392505050565b600082601f830112613acd57613acc6139b1565b5b8135613add848260208601613a76565b91505092915050565b60008060008060808587031215613b0057613aff613499565b5b6000613b0e878288016136ef565b9450506020613b1f878288016136ef565b9350506040613b308782880161363a565b925050606085013567ffffffffffffffff811115613b5157613b5061349e565b5b613b5d87828801613ab8565b91505092959194509250565b60008060408385031215613b8057613b7f613499565b5b6000613b8e8582860161363a565b9250506020613b9f858286016136ef565b9150509250929050565b60008060408385031215613bc057613bbf613499565b5b6000613bce858286016136ef565b9250506020613bdf858286016136ef565b9150509250929050565b7f4e487b7100000000000000000000000000000000000000000000000000000000600052602260045260246000fd5b60006002820490506001821680613c3057607f821691505b60208210811415613c4457613c43613be9565b5b50919050565b7f4e487b7100000000000000000000000000000000000000000000000000000000600052603260045260246000fd5b7f455243333532353a20617070726f76616c20746f2063757272656e74206f776e60008201527f6572000000000000000000000000000000000000000000000000000000000000602082015250565b6000613cd5602283613569565b9150613ce082613c79565b604082019050919050565b60006020820190508181036000830152613d0481613cc8565b9050919050565b7f455243333532353a20617070726f76652063616c6c6572206973206e6f74206f60008201527f776e6572206e6f7220617070726f76656420666f7220616c6c00000000000000602082015250565b6000613d67603983613569565b9150613d7282613d0b565b604082019050919050565b60006020820190508181036000830152613d9681613d5a565b9050919050565b600081905092915050565b6000613db38261355e565b613dbd8185613d9d565b9350613dcd81856020860161357a565b80840191505092915050565b7f736c6f742f000000000000000000000000000000000000000000000000000000600082015250565b6000613e0f600583613d9d565b9150613e1a82613dd9565b600582019050919050565b6000613e318285613da8565b9150613e3c82613e02565b9150613e488284613da8565b91508190509392505050565b600067ffffffffffffffff821115613e6f57613e6e6139bb565b5b613e78826135ad565b9050602081019050919050565b6000613e98613e9384613e54565b613a1b565b905082815260208101848484011115613eb457613eb36139b6565b5b613ebf84828561357a565b509392505050565b600082601f830112613edc57613edb6139b1565b5b8151613eec848260208601613e85565b91505092915050565b600060208284031215613f0b57613f0a613499565b5b600082015167ffffffffffffffff811115613f2957613f2861349e565b5b613f3584828501613ec7565b91505092915050565b7f455243333532353a207472616e736665722063616c6c6572206973206e6f742060008201527f6f776e6572206e6f7220617070726f7665640000000000000000000000000000602082015250565b6000613f9a603283613569565b9150613fa582613f3e565b604082019050919050565b60006020820190508181036000830152613fc981613f8d565b9050919050565b7f455243333532353a206f776e657220696e646578206f7574206f6620626f756e60008201527f6473000000000000000000000000000000000000000000000000000000000000602082015250565b600061402c602283613569565b915061403782613fd0565b604082019050919050565b6000602082019050818103600083015261405b8161401f565b9050919050565b7f455243333532353a20676c6f62616c20696e646578206f7574206f6620626f7560008201527f6e64730000000000000000000000000000000000000000000000000000000000602082015250565b60006140be602383613569565b91506140c982614062565b604082019050919050565b600060208201905081810360008301526140ed816140b1565b9050919050565b7f455243333532353a20696e76616c696420746f6b656e20494400000000000000600082015250565b600061412a601983613569565b9150614135826140f4565b602082019050919050565b600060208201905081810360008301526141598161411d565b9050919050565b7f455243333532353a2062616c616e636520717565727920666f7220746865207a60008201527f65726f2061646472657373000000000000000000000000000000000000000000602082015250565b60006141bc602b83613569565b91506141c782614160565b604082019050919050565b600060208201905081810360008301526141eb816141af565b9050919050565b7f455243333532353a20617070726f76652063616c6c6572206973206e6f74206f60008201527f776e6572206e6f7220617070726f766564000000000000000000000000000000602082015250565b600061424e603183613569565b9150614259826141f2565b604082019050919050565b6000602082019050818103600083015261427d81614241565b9050919050565b60006142908285613da8565b915061429c8284613da8565b91508190509392505050565b7f636f6e74726163742f0000000000000000000000000000000000000000000000600082015250565b60006142de600983613d9d565b91506142e9826142a8565b600982019050919050565b60006143008285613da8565b915061430b826142d1565b91506143178284613da8565b91508190509392505050565b7f4e487b7100000000000000000000000000000000000000000000000000000000600052601260045260246000fd5b7f455243333532353a20696e73756666696369656e7420616c6c6f77616e636500600082015250565b6000614388601f83613569565b915061439382614352565b602082019050919050565b600060208201905081810360008301526143b78161437b565b9050919050565b7f4e487b7100000000000000000000000000000000000000000000000000000000600052601160045260246000fd5b60006143f882613619565b915061440383613619565b925082821015614416576144156143be565b5b828203905092915050565b7f455243333532353a206d696e7420746f20746865207a65726f2061646472657360008201527f7300000000000000000000000000000000000000000000000000000000000000602082015250565b600061447d602183613569565b915061448882614421565b604082019050919050565b600060208201905081810360008301526144ac81614470565b9050919050565b7f455243333532353a2063616e6e6f74206d696e74207a65726f20746f6b656e4960008201527f6400000000000000000000000000000000000000000000000000000000000000602082015250565b600061450f602183613569565b915061451a826144b3565b604082019050919050565b6000602082019050818103600083015261453e81614502565b9050919050565b7f455243333532353a20746f6b656e20616c7265616479206d696e746564000000600082015250565b600061457b601d83613569565b915061458682614545565b602082019050919050565b600060208201905081810360008301526145aa8161456e565b9050919050565b7f455243333532353a207472616e736665722066726f6d20696e76616c6964207460008201527f6f6b656e20494400000000000000000000000000000000000000000000000000602082015250565b600061460d602783613569565b9150614618826145b1565b604082019050919050565b6000602082019050818103600083015261463c81614600565b9050919050565b7f455243333532353a207472616e7366657220746f20696e76616c696420746f6b60008201527f656e204944000000000000000000000000000000000000000000000000000000602082015250565b600061469f602583613569565b91506146aa82614643565b604082019050919050565b600060208201905081810360008301526146ce81614692565b9050919050565b7f455243333532353a20696e73756666696369656e742062616c616e636520666f60008201527f72207472616e7366657200000000000000000000000000000000000000000000602082015250565b6000614731602a83613569565b915061473c826146d5565b604082019050919050565b6000602082019050818103600083015261476081614724565b9050919050565b7f455243333532353a207472616e7366657220746f20746f6b656e20776974682060008201527f646966666572656e7420736c6f74000000000000000000000000000000000000602082015250565b60006147c3602e83613569565b91506147ce82614767565b604082019050919050565b600060208201905081810360008301526147f2816147b6565b9050919050565b600061480482613619565b915061480f83613619565b9250827fffffffffffffffffffffffffffffffffffffffffffffffffffffffffffffffff03821115614844576148436143be565b5b828201905092915050565b7f455243333532353a207472616e736665722072656a656374656420627920455260008201527f4333353235526563656976657200000000000000000000000000000000000000602082015250565b60006148ab602d83613569565b91506148b68261484f565b604082019050919050565b600060208201905081810360008301526148da8161489e565b9050919050565b7f455243333532353a207472616e736665722066726f6d20696e76616c6964206f60008201527f776e657200000000000000000000000000000000000000000000000000000000602082015250565b600061493d602483613569565b9150614948826148e1565b604082019050919050565b6000602082019050818103600083015261496c81614930565b9050919050565b7f455243333532353a207472616e7366657220746f20746865207a65726f20616460008201527f6472657373000000000000000000000000000000000000000000000000000000602082015250565b60006149cf602583613569565b91506149da82614973565b604082019050919050565b600060208201905081810360008301526149fe816149c2565b9050919050565b7f455243333532353a20617070726f76652076616c756520746f20746865207a6560008201527f726f206164647265737300000000000000000000000000000000000000000000602082015250565b6000614a61602a83613569565b9150614a6c82614a05565b604082019050919050565b60006020820190508181036000830152614a9081614a54565b9050919050565b7f455243333532353a20617070726f766520746f2063616c6c6572000000000000600082015250565b6000614acd601a83613569565b9150614ad882614a97565b602082019050919050565b60006020820190508181036000830152614afc81614ac0565b9050919050565b7f455243333532353a207472616e7366657220746f206e6f6e204552433732315260008201527f6563656976657200000000000000000000000000000000000000000000000000602082015250565b6000614b5f602783613569565b9150614b6a82614b03565b604082019050919050565b60006020820190508181036000830152614b8e81614b52565b9050919050565b614b9e816134a3565b82525050565b6000602082019050614bb96000830184614b95565b92915050565b600081519050614bce81613945565b92915050565b600060208284031215614bea57614be9613499565b5b6000614bf884828501614bbf565b91505092915050565b600081519050919050565b600082825260208201905092915050565b6000614c2882614c01565b614c328185614c0c565b9350614c4281856020860161357a565b614c4b816135ad565b840191505092915050565b600060a082019050614c6b60008301886136ae565b614c786020830187613797565b614c856040830186613797565b614c926060830185613797565b8181036080830152614ca48184614c1d565b90509695505050505050565b600081519050614cbf816134cf565b92915050565b600060208284031215614cdb57614cda613499565b5b6000614ce984828501614cb0565b91505092915050565b6000614cfd82613619565b91507fffffffffffffffffffffffffffffffffffffffffffffffffffffffffffffffff821415614d3057614d2f6143be565b5b600182019050919050565b7f4e487b7100000000000000000000000000000000000000000000000000000000600052603160045260246000fd5b6000608082019050614d7f60008301876136ae565b614d8c60208301866136ae565b614d996040830185613797565b8181036060830152614dab8184614c1d565b905095945050505050565b7f4552433732313a207472616e7366657220746f206e6f6e20455243373231526560008201527f63656976657220696d706c656d656e7465720000000000000000000000000000602082015250565b6000614e12603283613569565b9150614e1d82614db6565b604082019050919050565b60006020820190508181036000830152614e4181614e05565b9050919050565b6000614e5382613619565b9150614e5e83613619565b9250817fffffffffffffffffffffffffffffffffffffffffffffffffffffffffffffffff0483118215151615614e9757614e966143be565b5b828202905092915050565b6000614ead82613619565b91506000821415614ec157614ec06143be565b5b600182039050919050565b7f537472696e67733a20686578206c656e67746820696e73756666696369656e74600082015250565b6000614f02602083613569565b9150614f0d82614ecc565b602082019050919050565b60006020820190508181036000830152614f3181614ef5565b905091905056fea2646970667358221220460d6725b71dc28b10a42cae0af368693a2e19541d60097d094e6c2a92f7e0b364736f6c63430008090033",
  "immutableReferences": {},
  "source": "// SPDX-License-Identifier: MIT\n\npragma solidity ^0.8.0;\n\nimport \"@openzeppelin/contracts/utils/Context.sol\";\nimport \"@openzeppelin/contracts/utils/introspection/IERC165.sol\";\nimport \"@openzeppelin/contracts/utils/Strings.sol\";\nimport \"@openzeppelin/contracts/utils/Address.sol\";\nimport \"@openzeppelin/contracts/utils/Counters.sol\";\nimport \"./IERC721.sol\";\nimport \"./IERC3525.sol\";\nimport \"./IERC721Receiver.sol\";\nimport \"./IERC3525Receiver.sol\";\nimport \"./extensions/IERC721Enumerable.sol\";\nimport \"./extensions/IERC721Metadata.sol\";\nimport \"./extensions/IERC3525Metadata.sol\";\nimport \"./periphery/interface/IERC3525MetadataDescriptor.sol\";\n\ncontract ERC3525 is Context, IERC3525Metadata, IERC721Enumerable {\n    using Strings for address;\n    using Strings for uint256;\n    using Address for address;\n    using Counters for Counters.Counter;\n\n    event SetMetadataDescriptor(address indexed metadataDescriptor);\n\n    struct TokenData {\n        uint256 id;\n        uint256 slot;\n        uint256 balance;\n        address owner;\n        address approved;\n        address[] valueApprovals;\n    }\n\n    struct AddressData {\n        uint256[] ownedTokens;\n        mapping(uint256 => uint256) ownedTokensIndex;\n        mapping(address => bool) approvals;\n    }\n\n    string private _name;\n    string private _symbol;\n    uint8 private _decimals;\n    Counters.Counter private _tokenIdGenerator;\n\n    // id => (approval => allowance)\n    // @dev _approvedValues cannot be defined within TokenData, cause struct containing mappings cannot be constructed.\n    mapping(uint256 => mapping(address => uint256)) private _approvedValues;\n\n    TokenData[] private _allTokens;\n\n    // key: id\n    mapping(uint256 => uint256) private _allTokensIndex;\n\n    mapping(address => AddressData) private _addressData;\n\n    IERC3525MetadataDescriptor public metadataDescriptor;\n\n    constructor(string memory name_, string memory symbol_, uint8 decimals_) {\n         _name = name_;\n        _symbol = symbol_;\n        _decimals = decimals_;\n    }\n\n    function supportsInterface(bytes4 interfaceId) public view virtual override returns (bool) {\n        return\n            interfaceId == type(IERC165).interfaceId ||\n            interfaceId == type(IERC3525).interfaceId ||\n            interfaceId == type(IERC721).interfaceId ||\n            interfaceId == type(IERC3525Metadata).interfaceId ||\n            interfaceId == type(IERC721Enumerable).interfaceId || \n            interfaceId == type(IERC721Metadata).interfaceId;\n    }\n\n    /**\n     * @dev Returns the token collection name.\n     */\n    function name() public view virtual override returns (string memory) {\n        return _name;\n    }\n\n    /**\n     * @dev Returns the token collection symbol.\n     */\n    function symbol() public view virtual override returns (string memory) {\n        return _symbol;\n    }\n\n    /**\n     * @dev Returns the number of decimals the token uses for value.\n     */\n    function valueDecimals() public view virtual override returns (uint8) {\n        return _decimals;\n    }\n\n    function balanceOf(uint256 tokenId_) public view virtual override returns (uint256) {\n        _requireMinted(tokenId_);\n        return _allTokens[_allTokensIndex[tokenId_]].balance;\n    }\n\n    function ownerOf(uint256 tokenId_) public view virtual override returns (address owner_) {\n        _requireMinted(tokenId_);\n        owner_ = _allTokens[_allTokensIndex[tokenId_]].owner;\n        require(owner_ != address(0), \"ERC3525: invalid token ID\");\n    }\n\n    function slotOf(uint256 tokenId_) public view virtual override returns (uint256) {\n        _requireMinted(tokenId_);\n        return _allTokens[_allTokensIndex[tokenId_]].slot;\n    }\n\n    function _baseURI() internal view virtual returns (string memory) {\n        return \"\";\n    }\n\n    function contractURI() public view virtual override returns (string memory) {\n        string memory baseURI = _baseURI();\n        return \n            address(metadataDescriptor) != address(0) ? \n                metadataDescriptor.constructContractURI() :\n                bytes(baseURI).length > 0 ? \n                    string(abi.encodePacked(baseURI, \"contract/\", Strings.toHexString(address(this)))) : \n                    \"\";\n    }\n\n    function slotURI(uint256 slot_) public view virtual override returns (string memory) {\n        string memory baseURI = _baseURI();\n        return \n            address(metadataDescriptor) != address(0) ? \n                metadataDescriptor.constructSlotURI(slot_) : \n                bytes(baseURI).length > 0 ? \n                    string(abi.encodePacked(baseURI, \"slot/\", slot_.toString())) : \n                    \"\";\n    }\n\n    /**\n     * @dev Returns the Uniform Resource Identifier (URI) for `tokenId` token.\n     */\n    function tokenURI(uint256 tokenId_) public view virtual override returns (string memory) {\n        _requireMinted(tokenId_);\n        string memory baseURI = _baseURI();\n        return \n            address(metadataDescriptor) != address(0) ? \n                metadataDescriptor.constructTokenURI(tokenId_) : \n                bytes(baseURI).length > 0 ? \n                    string(abi.encodePacked(baseURI, tokenId_.toString())) : \n                    \"\";\n    }\n\n    function approve(uint256 tokenId_, address to_, uint256 value_) public payable virtual override {\n        address owner = ERC3525.ownerOf(tokenId_);\n        require(to_ != owner, \"ERC3525: approval to current owner\");\n\n        require(_isApprovedOrOwner(_msgSender(), tokenId_), \"ERC3525: approve caller is not owner nor approved\");\n\n        _approveValue(tokenId_, to_, value_);\n    }\n\n    function allowance(uint256 tokenId_, address operator_) public view virtual override returns (uint256) {\n        _requireMinted(tokenId_);\n        return _approvedValues[tokenId_][operator_];\n    }\n\n    function transferFrom(\n        uint256 fromTokenId_,\n        address to_,\n        uint256 value_\n    ) public payable virtual override returns (uint256 newTokenId) {\n        _spendAllowance(_msgSender(), fromTokenId_, value_);\n\n        newTokenId = _createDerivedTokenId(fromTokenId_);\n        _mint(to_, newTokenId, ERC3525.slotOf(fromTokenId_), 0);\n        _transferValue(fromTokenId_, newTokenId, value_);\n    }\n\n    function transferFrom(\n        uint256 fromTokenId_,\n        uint256 toTokenId_,\n        uint256 value_\n    ) public payable virtual override {\n        _spendAllowance(_msgSender(), fromTokenId_, value_);\n        _transferValue(fromTokenId_, toTokenId_, value_);\n    }\n\n    function balanceOf(address owner_) public view virtual override returns (uint256 balance) {\n        require(owner_ != address(0), \"ERC3525: balance query for the zero address\");\n        return _addressData[owner_].ownedTokens.length;\n    }\n\n    function transferFrom(\n        address from_,\n        address to_,\n        uint256 tokenId_\n    ) public payable virtual override {\n        require(_isApprovedOrOwner(_msgSender(), tokenId_), \"ERC3525: transfer caller is not owner nor approved\");\n        _transferTokenId(from_, to_, tokenId_);\n    }\n\n    function safeTransferFrom(\n        address from_,\n        address to_,\n        uint256 tokenId_,\n        bytes memory data_\n    ) public payable virtual override {\n        require(_isApprovedOrOwner(_msgSender(), tokenId_), \"ERC3525: transfer caller is not owner nor approved\");\n        _safeTransferTokenId(from_, to_, tokenId_, data_);\n    }\n\n    function safeTransferFrom(\n        address from_,\n        address to_,\n        uint256 tokenId_\n    ) public payable virtual override {\n        safeTransferFrom(from_, to_, tokenId_, \"\");\n    }\n\n    function approve(address to_, uint256 tokenId_) public payable virtual override {\n        address owner = ERC3525.ownerOf(tokenId_);\n        require(to_ != owner, \"ERC3525: approval to current owner\");\n\n        require(\n            _msgSender() == owner || ERC3525.isApprovedForAll(owner, _msgSender()),\n            \"ERC3525: approve caller is not owner nor approved for all\"\n        );\n\n        _approve(to_, tokenId_);\n    }\n\n    function getApproved(uint256 tokenId_) public view virtual override returns (address) {\n        _requireMinted(tokenId_);\n        return _allTokens[_allTokensIndex[tokenId_]].approved;\n    }\n\n    function setApprovalForAll(address operator_, bool approved_) public virtual override {\n        _setApprovalForAll(_msgSender(), operator_, approved_);\n    }\n\n    function isApprovedForAll(address owner_, address operator_) public view virtual override returns (bool) {\n        return _addressData[owner_].approvals[operator_];\n    }\n\n    function totalSupply() public view virtual override returns (uint256) {\n        return _allTokens.length;\n    }\n\n    function tokenByIndex(uint256 index_) public view virtual override returns (uint256) {\n        require(index_ < ERC3525.totalSupply(), \"ERC3525: global index out of bounds\");\n        return _allTokens[index_].id;\n    }\n\n    function tokenOfOwnerByIndex(address owner_, uint256 index_) public view virtual override returns (uint256) {\n        require(index_ < ERC3525.balanceOf(owner_), \"ERC3525: owner index out of bounds\");\n        return _addressData[owner_].ownedTokens[index_];\n    }\n\n    function _setApprovalForAll(\n        address owner_,\n        address operator_,\n        bool approved_\n    ) internal virtual {\n        require(owner_ != operator_, \"ERC3525: approve to caller\");\n\n        _addressData[owner_].approvals[operator_] = approved_;\n\n        emit ApprovalForAll(owner_, operator_, approved_);\n    }\n\n    function _isApprovedOrOwner(address operator_, uint256 tokenId_) internal view virtual returns (bool) {\n        address owner = ERC3525.ownerOf(tokenId_);\n        return (\n            operator_ == owner ||\n            ERC3525.isApprovedForAll(owner, operator_) ||\n            ERC3525.getApproved(tokenId_) == operator_\n        );\n    }\n\n    function _spendAllowance(address operator_, uint256 tokenId_, uint256 value_) internal virtual {\n        uint256 currentAllowance = ERC3525.allowance(tokenId_, operator_);\n        if (!_isApprovedOrOwner(operator_, tokenId_) && currentAllowance != type(uint256).max) {\n            require(currentAllowance >= value_, \"ERC3525: insufficient allowance\");\n            _approveValue(tokenId_, operator_, currentAllowance - value_);\n        }\n    }\n\n    function _exists(uint256 tokenId_) internal view virtual returns (bool) {\n        return _allTokens.length != 0 && _allTokens[_allTokensIndex[tokenId_]].id == tokenId_;\n    }\n\n    function _requireMinted(uint256 tokenId_) internal view virtual {\n        require(_exists(tokenId_), \"ERC3525: invalid token ID\");\n    }\n\n    function _mint(address to_, uint256 slot_, uint256 value_) internal virtual returns (uint256 tokenId) {\n        tokenId = _createOriginalTokenId();\n        _mint(to_, tokenId, slot_, value_);  \n    }\n\n    function _mint(address to_, uint256 tokenId_, uint256 slot_, uint256 value_) internal virtual {\n        require(to_ != address(0), \"ERC3525: mint to the zero address\");\n        require(tokenId_ != 0, \"ERC3525: cannot mint zero tokenId\");\n        require(!_exists(tokenId_), \"ERC3525: token already minted\");\n\n        _beforeValueTransfer(address(0), to_, 0, tokenId_, slot_, value_);\n        __mintToken(to_, tokenId_, slot_);\n        __mintValue(tokenId_, value_);\n        _afterValueTransfer(address(0), to_, 0, tokenId_, slot_, value_);\n    }\n\n    function _mintValue(uint256 tokenId_, uint256 value_) internal virtual {\n        address owner = ERC3525.ownerOf(tokenId_);\n        uint256 slot = ERC3525.slotOf(tokenId_);\n        _beforeValueTransfer(address(0), owner, 0, tokenId_, slot, value_);\n        __mintValue(tokenId_, value_);\n        _afterValueTransfer(address(0), owner, 0, tokenId_, slot, value_);\n    }\n\n    function __mintValue(uint256 tokenId_, uint256 value_) private {\n        _allTokens[_allTokensIndex[tokenId_]].balance += value_;\n        emit TransferValue(0, tokenId_, value_);\n    }\n\n    function __mintToken(address to_, uint256 tokenId_, uint256 slot_) private {\n        TokenData memory tokenData = TokenData({\n            id: tokenId_,\n            slot: slot_,\n            balance: 0,\n            owner: to_,\n            approved: address(0),\n            valueApprovals: new address[](0)\n        });\n\n        _addTokenToAllTokensEnumeration(tokenData);\n        _addTokenToOwnerEnumeration(to_, tokenId_);\n\n        emit Transfer(address(0), to_, tokenId_);\n        emit SlotChanged(tokenId_, 0, slot_);\n    }\n\n    function _burn(uint256 tokenId_) internal virtual {\n        _requireMinted(tokenId_);\n\n        TokenData storage tokenData = _allTokens[_allTokensIndex[tokenId_]];\n        address owner = tokenData.owner;\n        uint256 slot = tokenData.slot;\n        uint256 value = tokenData.balance;\n\n        _beforeValueTransfer(owner, address(0), tokenId_, 0, slot, value);\n\n        _clearApprovedValues(tokenId_);\n        _removeTokenFromOwnerEnumeration(owner, tokenId_);\n        _removeTokenFromAllTokensEnumeration(tokenId_);\n\n        emit TransferValue(tokenId_, 0, value);\n        emit SlotChanged(tokenId_, slot, 0);\n        emit Transfer(owner, address(0), tokenId_);\n\n        _afterValueTransfer(owner, address(0), tokenId_, 0, slot, value);\n    }\n\n    function _burnValue(uint256 tokenId_, uint256 burnValue_) internal virtual {\n        _requireMinted(tokenId_);\n\n        TokenData storage tokenData = _allTokens[_allTokensIndex[tokenId_]];\n        address owner = tokenData.owner;\n        uint256 slot = tokenData.slot;\n        uint256 value = tokenData.balance;\n\n        require(value >= burnValue_, \"ERC3525: burn value exceeds balance\");\n\n        _beforeValueTransfer(owner, address(0), tokenId_, 0, slot, burnValue_);\n        \n        tokenData.balance -= burnValue_;\n        emit TransferValue(tokenId_, 0, burnValue_);\n        \n        _afterValueTransfer(owner, address(0), tokenId_, 0, slot, burnValue_);\n    }\n\n    function _addTokenToOwnerEnumeration(address to_, uint256 tokenId_) private {\n        _allTokens[_allTokensIndex[tokenId_]].owner = to_;\n\n        _addressData[to_].ownedTokensIndex[tokenId_] = _addressData[to_].ownedTokens.length;\n        _addressData[to_].ownedTokens.push(tokenId_);\n    }\n\n    function _removeTokenFromOwnerEnumeration(address from_, uint256 tokenId_) private {\n        _allTokens[_allTokensIndex[tokenId_]].owner = address(0);\n\n        AddressData storage ownerData = _addressData[from_];\n        uint256 lastTokenIndex = ownerData.ownedTokens.length - 1;\n        uint256 lastTokenId = ownerData.ownedTokens[lastTokenIndex];\n        uint256 tokenIndex = ownerData.ownedTokensIndex[tokenId_];\n\n        ownerData.ownedTokens[tokenIndex] = lastTokenId;\n        ownerData.ownedTokensIndex[lastTokenId] = tokenIndex;\n\n        delete ownerData.ownedTokensIndex[tokenId_];\n        ownerData.ownedTokens.pop();\n    }\n\n    function _addTokenToAllTokensEnumeration(TokenData memory tokenData_) private {\n        _allTokensIndex[tokenData_.id] = _allTokens.length;\n        _allTokens.push(tokenData_);\n    }\n\n    function _removeTokenFromAllTokensEnumeration(uint256 tokenId_) private {\n        // To prevent a gap in the tokens array, we store the last token in the index of the token to delete, and\n        // then delete the last slot (swap and pop).\n\n        uint256 lastTokenIndex = _allTokens.length - 1;\n        uint256 tokenIndex = _allTokensIndex[tokenId_];\n\n        // When the token to delete is the last token, the swap operation is unnecessary. However, since this occurs so\n        // rarely (when the last minted token is burnt) that we still do the swap here to avoid the gas cost of adding\n        // an 'if' statement (like in _removeTokenFromOwnerEnumeration)\n        TokenData memory lastTokenData = _allTokens[lastTokenIndex];\n\n        _allTokens[tokenIndex] = lastTokenData; // Move the last token to the slot of the to-delete token\n        _allTokensIndex[lastTokenData.id] = tokenIndex; // Update the moved token's index\n\n        // This also deletes the contents at the last position of the array\n        delete _allTokensIndex[tokenId_];\n        _allTokens.pop();\n    }\n\n    function _approve(address to_, uint256 tokenId_) internal virtual {\n        _allTokens[_allTokensIndex[tokenId_]].approved = to_;\n        emit Approval(ERC3525.ownerOf(tokenId_), to_, tokenId_);\n    }\n\n    function _approveValue(\n        uint256 tokenId_,\n        address to_,\n        uint256 value_\n    ) internal virtual {\n        require(to_ != address(0), \"ERC3525: approve value to the zero address\");\n        if (!_existApproveValue(to_, tokenId_)) {\n            _allTokens[_allTokensIndex[tokenId_]].valueApprovals.push(to_);\n        }\n        _approvedValues[tokenId_][to_] = value_;\n\n        emit ApprovalValue(tokenId_, to_, value_);\n    }\n\n    function _clearApprovedValues(uint256 tokenId_) internal virtual {\n        TokenData storage tokenData = _allTokens[_allTokensIndex[tokenId_]];\n        uint256 length = tokenData.valueApprovals.length;\n        for (uint256 i = 0; i < length; i++) {\n            address approval = tokenData.valueApprovals[i];\n            delete _approvedValues[tokenId_][approval];\n        }\n        delete tokenData.valueApprovals;\n    }\n\n    function _existApproveValue(address to_, uint256 tokenId_) internal view virtual returns (bool) {\n        uint256 length = _allTokens[_allTokensIndex[tokenId_]].valueApprovals.length;\n        for (uint256 i = 0; i < length; i++) {\n            if (_allTokens[_allTokensIndex[tokenId_]].valueApprovals[i] == to_) {\n                return true;\n            }\n        }\n        return false;\n    }\n\n    function _transferValue(\n        uint256 fromTokenId_,\n        uint256 toTokenId_,\n        uint256 value_\n    ) internal virtual {\n        require(_exists(fromTokenId_), \"ERC3525: transfer from invalid token ID\");\n        require(_exists(toTokenId_), \"ERC3525: transfer to invalid token ID\");\n\n        TokenData storage fromTokenData = _allTokens[_allTokensIndex[fromTokenId_]];\n        TokenData storage toTokenData = _allTokens[_allTokensIndex[toTokenId_]];\n\n        require(fromTokenData.balance >= value_, \"ERC3525: insufficient balance for transfer\");\n        require(fromTokenData.slot == toTokenData.slot, \"ERC3525: transfer to token with different slot\");\n\n        _beforeValueTransfer(\n            fromTokenData.owner,\n            toTokenData.owner,\n            fromTokenId_,\n            toTokenId_,\n            fromTokenData.slot,\n            value_\n        );\n\n        fromTokenData.balance -= value_;\n        toTokenData.balance += value_;\n\n        emit TransferValue(fromTokenId_, toTokenId_, value_);\n\n        _afterValueTransfer(\n            fromTokenData.owner,\n            toTokenData.owner,\n            fromTokenId_,\n            toTokenId_,\n            fromTokenData.slot,\n            value_\n        );\n\n        require(\n            _checkOnERC3525Received(fromTokenId_, toTokenId_, value_, \"\"),\n            \"ERC3525: transfer rejected by ERC3525Receiver\"\n        );\n    }\n\n    function _transferTokenId(\n        address from_,\n        address to_,\n        uint256 tokenId_\n    ) internal virtual {\n        require(ERC3525.ownerOf(tokenId_) == from_, \"ERC3525: transfer from invalid owner\");\n        require(to_ != address(0), \"ERC3525: transfer to the zero address\");\n\n        uint256 slot = ERC3525.slotOf(tokenId_);\n        uint256 value = ERC3525.balanceOf(tokenId_);\n\n        _beforeValueTransfer(from_, to_, tokenId_, tokenId_, slot, value);\n\n        _approve(address(0), tokenId_);\n        _clearApprovedValues(tokenId_);\n\n        _removeTokenFromOwnerEnumeration(from_, tokenId_);\n        _addTokenToOwnerEnumeration(to_, tokenId_);\n\n        emit Transfer(from_, to_, tokenId_);\n\n        _afterValueTransfer(from_, to_, tokenId_, tokenId_, slot, value);\n    }\n\n    function _safeTransferTokenId(\n        address from_,\n        address to_,\n        uint256 tokenId_,\n        bytes memory data_\n    ) internal virtual {\n        _transferTokenId(from_, to_, tokenId_);\n        require(\n            _checkOnERC721Received(from_, to_, tokenId_, data_),\n            \"ERC3525: transfer to non ERC721Receiver\"\n        );\n    }\n\n    function _checkOnERC3525Received( \n        uint256 fromTokenId_, \n        uint256 toTokenId_, \n        uint256 value_, \n        bytes memory data_\n    ) private returns (bool) {\n        address to = ERC3525.ownerOf(toTokenId_);\n        if (to.isContract() && IERC165(to).supportsInterface(type(IERC3525Receiver).interfaceId)) {\n            bytes4 retval = IERC3525Receiver(to).onERC3525Received(_msgSender(), fromTokenId_, toTokenId_, value_, data_);\n            return retval == IERC3525Receiver.onERC3525Received.selector;\n        } else {\n            return true;\n        }\n    }\n\n    /**\n     * @dev Internal function to invoke {IERC721Receiver-onERC721Received} on a target address.\n     * The call is not executed if the target address is not a contract.\n     *\n     * @param from_ address representing the previous owner of the given token ID\n     * @param to_ target address that will receive the tokens\n     * @param tokenId_ uint256 ID of the token to be transferred\n     * @param data_ bytes optional data to send along with the call\n     * @return bool whether the call correctly returned the expected magic value\n     */\n    function _checkOnERC721Received(\n        address from_,\n        address to_,\n        uint256 tokenId_,\n        bytes memory data_\n    ) private returns (bool) {\n        if (to_.isContract()) {\n            try \n                IERC721Receiver(to_).onERC721Received(_msgSender(), from_, tokenId_, data_) returns (bytes4 retval) {\n                return retval == IERC721Receiver.onERC721Received.selector;\n            } catch (bytes memory reason) {\n                if (reason.length == 0) {\n                    revert(\"ERC721: transfer to non ERC721Receiver implementer\");\n                } else {\n                    /// @solidity memory-safe-assembly\n                    assembly {\n                        revert(add(32, reason), mload(reason))\n                    }\n                }\n            }\n        } else {\n            return true;\n        }\n    }\n\n    /* solhint-disable */\n    function _beforeValueTransfer(\n        address from_,\n        address to_,\n        uint256 fromTokenId_,\n        uint256 toTokenId_,\n        uint256 slot_,\n        uint256 value_\n    ) internal virtual {}\n\n    function _afterValueTransfer(\n        address from_,\n        address to_,\n        uint256 fromTokenId_,\n        uint256 toTokenId_,\n        uint256 slot_,\n        uint256 value_\n    ) internal virtual {}\n    /* solhint-enable */\n\n    function _setMetadataDescriptor(address metadataDescriptor_) internal virtual {\n        metadataDescriptor = IERC3525MetadataDescriptor(metadataDescriptor_);\n        emit SetMetadataDescriptor(metadataDescriptor_);\n    }\n\n    function _createOriginalTokenId() internal virtual returns (uint256) {\n         _tokenIdGenerator.increment();\n        return _tokenIdGenerator.current();\n    }\n\n    function _createDerivedTokenId(uint256 fromTokenId_) internal virtual returns (uint256) {\n        fromTokenId_;\n        return _createOriginalTokenId();\n    }\n}\n",
  "sourcePath": "@solvprotocol/erc-3525/ERC3525.sol",
  "compiler": {
    "name": "solc",
    "version": "0.8.9+commit.e5eed63a.Emscripten.clang"
  },
  "schemaVersion": "3.4.13",
  "updatedAt": "2023-04-24T02:27:01.264Z",
  "devdoc": {
    "kind": "dev",
    "methods": {
      "contractURI()": {
        "details": "This function SHOULD return the URI for this contract in JSON format, starting with  header `data:application/json;`.  See https://eips.ethereum.org/EIPS/eip-3525 for the JSON schema for contract URI.",
        "returns": {
          "_0": "The JSON formatted URI of the current ERC3525 contract"
        }
      },
      "name()": {
        "details": "Returns the token collection name."
      },
      "supportsInterface(bytes4)": {
        "details": "Returns true if this contract implements the interface defined by `interfaceId`. See the corresponding https://eips.ethereum.org/EIPS/eip-165#how-interfaces-are-identified[EIP section] to learn more about how these ids are created. This function call must use less than 30 000 gas."
      },
      "symbol()": {
        "details": "Returns the token collection symbol."
      },
      "tokenURI(uint256)": {
        "details": "Returns the Uniform Resource Identifier (URI) for `tokenId` token."
      },
      "totalSupply()": {
        "returns": {
          "_0": "A count of valid NFTs tracked by this contract, where each one of  them has an assigned and queryable owner not equal to the zero address"
        }
      },
      "valueDecimals()": {
        "details": "Returns the number of decimals the token uses for value."
      }
    },
    "version": 1
  },
  "userdoc": {
    "kind": "user",
    "methods": {
      "contractURI()": {
        "notice": "Returns the Uniform Resource Identifier (URI) for the current ERC3525 contract."
      },
      "totalSupply()": {
        "notice": "Count NFTs tracked by this contract"
      }
    },
    "version": 1
  }
}