{
  "contractName": "IdemixOracle",
  "abi": [
    {
      "anonymous": false,
      "inputs": [
        {
          "indexed": false,
          "internalType": "address",
          "name": "callerAddress",
          "type": "address"
        },
        {
          "indexed": false,
          "internalType": "uint256",
          "name": "tokenId",
          "type": "uint256"
        },
        {
          "indexed": false,
          "internalType": "int256",
          "name": "name_",
          "type": "int256"
        },
        {
          "indexed": false,
          "internalType": "int256",
          "name": "department_",
          "type": "int256"
        },
        {
          "indexed": false,
          "internalType": "int256",
          "name": "onBoardingTime_",
          "type": "int256"
        },
        {
          "indexed": false,
          "internalType": "int256[]",
          "name": "disclosure_",
          "type": "int256[]"
        },
        {
          "indexed": false,
          "internalType": "uint256",
          "name": "requestId",
          "type": "uint256"
        }
      ],
      "name": "GetCredGenRequestEvent",
      "type": "event"
    },
    {
      "anonymous": false,
      "inputs": [
        {
          "indexed": false,
          "internalType": "address",
          "name": "callerAddress",
          "type": "address"
        },
        {
          "indexed": false,
          "internalType": "uint256",
          "name": "tokenId",
          "type": "uint256"
        },
        {
          "indexed": false,
          "internalType": "string",
          "name": "nymCred",
          "type": "string"
        },
        {
          "indexed": false,
          "internalType": "uint256",
          "name": "requestId",
          "type": "uint256"
        }
      ],
      "name": "GetCredVerRequestEvent",
      "type": "event"
    },
    {
      "anonymous": false,
      "inputs": [
        {
          "indexed": false,
          "internalType": "uint256",
          "name": "tokenId",
          "type": "uint256"
        },
        {
          "indexed": false,
          "internalType": "address",
          "name": "callerAddress",
          "type": "address"
        }
      ],
      "name": "SetCredGenOKEvent",
      "type": "event"
    },
    {
      "anonymous": false,
      "inputs": [
        {
          "indexed": false,
          "internalType": "uint256",
          "name": "tokenId",
          "type": "uint256"
        },
        {
          "indexed": false,
          "internalType": "address",
          "name": "callerAddress",
          "type": "address"
        }
      ],
      "name": "SetCredVerOKEvent",
      "type": "event"
    },
    {
      "inputs": [
        {
          "internalType": "uint256",
          "name": "tokenId_",
          "type": "uint256"
        },
        {
          "internalType": "int256",
          "name": "name_",
          "type": "int256"
        },
        {
          "internalType": "int256",
          "name": "department_",
          "type": "int256"
        },
        {
          "internalType": "int256",
          "name": "onBoardingTime_",
          "type": "int256"
        },
        {
          "internalType": "int256[]",
          "name": "disclosure_",
          "type": "int256[]"
        }
      ],
      "name": "getCredGenRequest",
      "outputs": [
        {
          "internalType": "uint256",
          "name": "",
          "type": "uint256"
        }
      ],
      "stateMutability": "nonpayable",
      "type": "function"
    },
    {
      "inputs": [
        {
          "internalType": "uint256",
          "name": "tokenId_",
          "type": "uint256"
        },
        {
          "internalType": "uint256[]",
          "name": "revealAttr",
          "type": "uint256[]"
        },
        {
          "internalType": "string",
          "name": "unReavealAttr",
          "type": "string"
        },
        {
          "internalType": "string",
          "name": "nymCred",
          "type": "string"
        },
        {
          "internalType": "address",
          "name": "_callerAddress",
          "type": "address"
        },
        {
          "internalType": "uint256",
          "name": "_requestId",
          "type": "uint256"
        }
      ],
      "name": "setCredGenRes",
      "outputs": [],
      "stateMutability": "nonpayable",
      "type": "function"
    },
    {
      "inputs": [
        {
          "internalType": "uint256",
          "name": "tokenId_",
          "type": "uint256"
        },
        {
          "internalType": "string",
          "name": "nymCred_",
          "type": "string"
        }
      ],
      "name": "getCredVerRequest",
      "outputs": [
        {
          "internalType": "uint256",
          "name": "",
          "type": "uint256"
        }
      ],
      "stateMutability": "nonpayable",
      "type": "function"
    },
    {
      "inputs": [
        {
          "internalType": "uint256",
          "name": "tokenId_",
          "type": "uint256"
        },
        {
          "internalType": "bool",
          "name": "verRes_",
          "type": "bool"
        },
        {
          "internalType": "address",
          "name": "_callerAddress",
          "type": "address"
        },
        {
          "internalType": "uint256",
          "name": "_requestId",
          "type": "uint256"
        }
      ],
      "name": "setCredVerRes",
      "outputs": [],
      "stateMutability": "nonpayable",
      "type": "function"
    }
  ],
  "bytecode": "0x6080604052600080556103e860015534801561001a57600080fd5b506111218061002a6000396000f3fe608060405234801561001057600080fd5b506004361061004c5760003560e01c80631738a4db1461005157806352e38b971461006d578063871e893e14610089578063bd5548ac146100b9575b600080fd5b61006b600480360381019061006691906107a6565b6100e9565b005b610087600480360381019061008291906108bf565b61021e565b005b6100a3600480360381019061009e9190610926565b61034d565b6040516100b09190610991565b60405180910390f35b6100d360048036038101906100ce9190610aa5565b61041a565b6040516100e09190610991565b60405180910390f35b6002600082815260200190815260200160002060009054906101000a900460ff16610149576040517f08c379a000000000000000000000000000000000000000000000000000000000815260040161014090610bbf565b60405180910390fd5b6002600082815260200190815260200160002060006101000a81549060ff02191690558173ffffffffffffffffffffffffffffffffffffffff16634281a4a8878787876040518563ffffffff1660e01b81526004016101ab9493929190610d14565b600060405180830381600087803b1580156101c557600080fd5b505af11580156101d9573d6000803e3d6000fd5b505050507f86b518e5a084af04a571e29fa5d90121b0735a69bca0e2787dd5da784f30f2d0868360405161020e929190610d7d565b60405180910390a1505050505050565b6002600082815260200190815260200160002060009054906101000a900460ff1661027e576040517f08c379a000000000000000000000000000000000000000000000000000000000815260040161027590610bbf565b60405180910390fd5b6002600082815260200190815260200160002060006101000a81549060ff02191690558173ffffffffffffffffffffffffffffffffffffffff1663d56408f685856040518363ffffffff1660e01b81526004016102dc929190610db5565b600060405180830381600087803b1580156102f657600080fd5b505af115801561030a573d6000803e3d6000fd5b505050507f9b317d0ab799d847f6d7558334b05a37cdcc4cc01ed58f20ca33f9139f279b31848360405161033f929190610d7d565b60405180910390a150505050565b600080600081548092919061036190610e0d565b91905055506000600154423360005460405160200161038293929190610ebf565b6040516020818303038152906040528051906020012060001c6103a59190610f2b565b905060016002600083815260200190815260200160002060006101000a81548160ff0219169083151502179055507f13e3098dc8f5f28983989e5a05eeb57e47f85ef6a1ee43e84426c7e5439141d2338585846040516104089493929190610f5c565b60405180910390a18091505092915050565b600080600081548092919061042e90610e0d565b91905055506000600154423360005460405160200161044f93929190610ebf565b6040516020818303038152906040528051906020012060001c6104729190610f2b565b905060016002600083815260200190815260200160002060006101000a81548160ff0219169083151502179055507fb63876d875401121689276c4e355f30861aacaeff28b0e53713f1cc0e7382ac9338888888888876040516104db9796959493929190611075565b60405180910390a18091505095945050505050565b6000604051905090565b600080fd5b600080fd5b6000819050919050565b61051781610504565b811461052257600080fd5b50565b6000813590506105348161050e565b92915050565b600080fd5b6000601f19601f8301169050919050565b7f4e487b7100000000000000000000000000000000000000000000000000000000600052604160045260246000fd5b6105888261053f565b810181811067ffffffffffffffff821117156105a7576105a6610550565b5b80604052505050565b60006105ba6104f0565b90506105c6828261057f565b919050565b600067ffffffffffffffff8211156105e6576105e5610550565b5b602082029050602081019050919050565b600080fd5b600061060f61060a846105cb565b6105b0565b90508083825260208201905060208402830185811115610632576106316105f7565b5b835b8181101561065b57806106478882610525565b845260208401935050602081019050610634565b5050509392505050565b600082601f83011261067a5761067961053a565b5b813561068a8482602086016105fc565b91505092915050565b600080fd5b600067ffffffffffffffff8211156106b3576106b2610550565b5b6106bc8261053f565b9050602081019050919050565b82818337600083830152505050565b60006106eb6106e684610698565b6105b0565b90508281526020810184848401111561070757610706610693565b5b6107128482856106c9565b509392505050565b600082601f83011261072f5761072e61053a565b5b813561073f8482602086016106d8565b91505092915050565b600073ffffffffffffffffffffffffffffffffffffffff82169050919050565b600061077382610748565b9050919050565b61078381610768565b811461078e57600080fd5b50565b6000813590506107a08161077a565b92915050565b60008060008060008060c087890312156107c3576107c26104fa565b5b60006107d189828a01610525565b965050602087013567ffffffffffffffff8111156107f2576107f16104ff565b5b6107fe89828a01610665565b955050604087013567ffffffffffffffff81111561081f5761081e6104ff565b5b61082b89828a0161071a565b945050606087013567ffffffffffffffff81111561084c5761084b6104ff565b5b61085889828a0161071a565b935050608061086989828a01610791565b92505060a061087a89828a01610525565b9150509295509295509295565b60008115159050919050565b61089c81610887565b81146108a757600080fd5b50565b6000813590506108b981610893565b92915050565b600080600080608085870312156108d9576108d86104fa565b5b60006108e787828801610525565b94505060206108f8878288016108aa565b935050604061090987828801610791565b925050606061091a87828801610525565b91505092959194509250565b6000806040838503121561093d5761093c6104fa565b5b600061094b85828601610525565b925050602083013567ffffffffffffffff81111561096c5761096b6104ff565b5b6109788582860161071a565b9150509250929050565b61098b81610504565b82525050565b60006020820190506109a66000830184610982565b92915050565b6000819050919050565b6109bf816109ac565b81146109ca57600080fd5b50565b6000813590506109dc816109b6565b92915050565b600067ffffffffffffffff8211156109fd576109fc610550565b5b602082029050602081019050919050565b6000610a21610a1c846109e2565b6105b0565b90508083825260208201905060208402830185811115610a4457610a436105f7565b5b835b81811015610a6d5780610a5988826109cd565b845260208401935050602081019050610a46565b5050509392505050565b600082601f830112610a8c57610a8b61053a565b5b8135610a9c848260208601610a0e565b91505092915050565b600080600080600060a08688031215610ac157610ac06104fa565b5b6000610acf88828901610525565b9550506020610ae0888289016109cd565b9450506040610af1888289016109cd565b9350506060610b02888289016109cd565b925050608086013567ffffffffffffffff811115610b2357610b226104ff565b5b610b2f88828901610a77565b9150509295509295909350565b600082825260208201905092915050565b7f546869732072657175657374206973206e6f7420696e206d792070656e64696e60008201527f67206c6973742e00000000000000000000000000000000000000000000000000602082015250565b6000610ba9602783610b3c565b9150610bb482610b4d565b604082019050919050565b60006020820190508181036000830152610bd881610b9c565b9050919050565b600081519050919050565b600082825260208201905092915050565b6000819050602082019050919050565b610c1481610504565b82525050565b6000610c268383610c0b565b60208301905092915050565b6000602082019050919050565b6000610c4a82610bdf565b610c548185610bea565b9350610c5f83610bfb565b8060005b83811015610c90578151610c778882610c1a565b9750610c8283610c32565b925050600181019050610c63565b5085935050505092915050565b600081519050919050565b60005b83811015610cc6578082015181840152602081019050610cab565b83811115610cd5576000848401525b50505050565b6000610ce682610c9d565b610cf08185610b3c565b9350610d00818560208601610ca8565b610d098161053f565b840191505092915050565b6000608082019050610d296000830187610982565b8181036020830152610d3b8186610c3f565b90508181036040830152610d4f8185610cdb565b90508181036060830152610d638184610cdb565b905095945050505050565b610d7781610768565b82525050565b6000604082019050610d926000830185610982565b610d9f6020830184610d6e565b9392505050565b610daf81610887565b82525050565b6000604082019050610dca6000830185610982565b610dd76020830184610da6565b9392505050565b7f4e487b7100000000000000000000000000000000000000000000000000000000600052601160045260246000fd5b6000610e1882610504565b91507fffffffffffffffffffffffffffffffffffffffffffffffffffffffffffffffff821415610e4b57610e4a610dde565b5b600182019050919050565b6000819050919050565b610e71610e6c82610504565b610e56565b82525050565b60008160601b9050919050565b6000610e8f82610e77565b9050919050565b6000610ea182610e84565b9050919050565b610eb9610eb482610768565b610e96565b82525050565b6000610ecb8286610e60565b602082019150610edb8285610ea8565b601482019150610eeb8284610e60565b602082019150819050949350505050565b7f4e487b7100000000000000000000000000000000000000000000000000000000600052601260045260246000fd5b6000610f3682610504565b9150610f4183610504565b925082610f5157610f50610efc565b5b828206905092915050565b6000608082019050610f716000830187610d6e565b610f7e6020830186610982565b8181036040830152610f908185610cdb565b9050610f9f6060830184610982565b95945050505050565b610fb1816109ac565b82525050565b600081519050919050565b600082825260208201905092915050565b6000819050602082019050919050565b610fec816109ac565b82525050565b6000610ffe8383610fe3565b60208301905092915050565b6000602082019050919050565b600061102282610fb7565b61102c8185610fc2565b935061103783610fd3565b8060005b8381101561106857815161104f8882610ff2565b975061105a8361100a565b92505060018101905061103b565b5085935050505092915050565b600060e08201905061108a600083018a610d6e565b6110976020830189610982565b6110a46040830188610fa8565b6110b16060830187610fa8565b6110be6080830186610fa8565b81810360a08301526110d08185611017565b90506110df60c0830184610982565b9897505050505050505056fea264697066735822122018c3f5155b57dbd8c014627b652affc6a3f5e6557455344bbe1d3693e62d8a0864736f6c63430008090033",
  "immutableReferences": {},
  "source": "// SPDX-License-Identifier: MIT\npragma solidity ^0.8.9;\n\nimport \"./SbtGenContract.sol\";\nimport \"./SbtVerifyContract.sol\";\n\ncontract IdemixOracle {\n    uint private randNonce = 0;\n    uint private modulus = 1000;\n\n    // \n    mapping (uint256 => bool) pendingRequests;\n\n    // \n    event GetCredGenRequestEvent(address callerAddress,uint256 tokenId, int name_,int department_,int onBoardingTime_, int[] disclosure_,uint256 requestId);\n    // \n    event SetCredGenOKEvent(uint256 tokenId,address callerAddress);\n    // \n    event GetCredVerRequestEvent(address callerAddress,uint256 tokenId, string nymCred, uint256 requestId);\n    // \n    event SetCredVerOKEvent(uint256 tokenId,address callerAddress);\n\n    // caller\n    function getCredGenRequest(\n        uint256 tokenId_,\n        int name_,\n        int department_,\n        int onBoardingTime_,\n        int[] memory disclosure_\n    ) public returns(uint256){\n        randNonce++;\n        uint256 requestId = uint(keccak256(abi.encodePacked(block.timestamp,msg.sender,randNonce))) % modulus;\n        pendingRequests[requestId] = true;\n        emit GetCredGenRequestEvent(msg.sender,tokenId_, name_, department_, onBoardingTime_, disclosure_, requestId);\n        return requestId;\n    }\n\n    // \n    function setCredGenRes(\n        uint256 tokenId_,\n        uint256[] memory revealAttr,\n        string memory unReavealAttr,\n        string memory nymCred,\n        address _callerAddress, \n        uint256 _requestId\n    ) public {\n        require(pendingRequests[_requestId],\"This request is not in my pending list.\");\n        delete pendingRequests[_requestId];\n        SbtGenContract(_callerAddress).tokenURI_Res(tokenId_, revealAttr, unReavealAttr, nymCred);\n        emit SetCredGenOKEvent(tokenId_, _callerAddress);\n    }\n\n    // caller\n    function getCredVerRequest(\n        uint256 tokenId_,\n        string memory nymCred_\n    ) public returns(uint256){\n        randNonce++;\n        uint256 requestId = uint(keccak256(abi.encodePacked(block.timestamp,msg.sender,randNonce))) % modulus;\n        pendingRequests[requestId] = true;\n        emit GetCredVerRequestEvent(msg.sender, tokenId_, nymCred_, requestId);\n        return requestId;\n    }\n\n    // \n    function setCredVerRes(\n        uint256 tokenId_,\n        bool verRes_,\n        address _callerAddress, \n        uint256 _requestId\n    ) public {\n        require(pendingRequests[_requestId],\"This request is not in my pending list.\");\n        delete pendingRequests[_requestId];\n        SbtVerifyContract(_callerAddress).tokenVer_Res(tokenId_, verRes_);\n        emit SetCredVerOKEvent(tokenId_, _callerAddress);\n    }\n\n}\n\n",
  "sourcePath": "/home/xwk/GraduationProject/sourcecode/SBT-Oracle/contracts/IdemixOracle.sol",
  "compiler": {
    "name": "solc",
    "version": "0.8.9+commit.e5eed63a.Emscripten.clang"
  },
  "schemaVersion": "3.4.13",
  "updatedAt": "2023-04-24T02:27:10.931Z",
  "networkType": "ethereum",
  "devdoc": {
    "kind": "dev",
    "methods": {},
    "version": 1
  },
  "userdoc": {
    "kind": "user",
    "methods": {},
    "version": 1
  }
}