{
  "contractName": "SbtGenContract",
  "abi": [
    {
      "inputs": [
        {
          "internalType": "address",
          "name": "owner_",
          "type": "address"
        }
      ],
      "stateMutability": "nonpayable",
      "type": "constructor"
    },
    {
      "anonymous": false,
      "inputs": [
        {
          "indexed": true,
          "internalType": "address",
          "name": "_owner",
          "type": "address"
        },
        {
          "indexed": true,
          "internalType": "address",
          "name": "_approved",
          "type": "address"
        },
        {
          "indexed": true,
          "internalType": "uint256",
          "name": "_tokenId",
          "type": "uint256"
        }
      ],
      "name": "Approval",
      "type": "event"
    },
    {
      "anonymous": false,
      "inputs": [
        {
          "indexed": true,
          "internalType": "address",
          "name": "_owner",
          "type": "address"
        },
        {
          "indexed": true,
          "internalType": "address",
          "name": "_operator",
          "type": "address"
        },
        {
          "indexed": false,
          "internalType": "bool",
          "name": "_approved",
          "type": "bool"
        }
      ],
      "name": "ApprovalForAll",
      "type": "event"
    },
    {
      "anonymous": false,
      "inputs": [
        {
          "indexed": true,
          "internalType": "uint256",
          "name": "_tokenId",
          "type": "uint256"
        },
        {
          "indexed": true,
          "internalType": "address",
          "name": "_operator",
          "type": "address"
        },
        {
          "indexed": false,
          "internalType": "uint256",
          "name": "_value",
          "type": "uint256"
        }
      ],
      "name": "ApprovalValue",
      "type": "event"
    },
    {
      "anonymous": false,
      "inputs": [
        {
          "indexed": false,
          "internalType": "uint256",
          "name": "tokenId",
          "type": "uint256"
        },
        {
          "indexed": false,
          "internalType": "uint256",
          "name": "requestId",
          "type": "uint256"
        }
      ],
      "name": "ReceivedNewTokenURIRequestEvent",
      "type": "event"
    },
    {
      "anonymous": false,
      "inputs": [
        {
          "indexed": true,
          "internalType": "address",
          "name": "metadataDescriptor",
          "type": "address"
        }
      ],
      "name": "SetMetadataDescriptor",
      "type": "event"
    },
    {
      "anonymous": false,
      "inputs": [
        {
          "indexed": true,
          "internalType": "uint256",
          "name": "_tokenId",
          "type": "uint256"
        },
        {
          "indexed": true,
          "internalType": "uint256",
          "name": "_oldSlot",
          "type": "uint256"
        },
        {
          "indexed": true,
          "internalType": "uint256",
          "name": "_newSlot",
          "type": "uint256"
        }
      ],
      "name": "SlotChanged",
      "type": "event"
    },
    {
      "anonymous": false,
      "inputs": [
        {
          "indexed": false,
          "internalType": "uint256",
          "name": "tokenId",
          "type": "uint256"
        },
        {
          "indexed": false,
          "internalType": "string",
          "name": "tokenURI",
          "type": "string"
        }
      ],
      "name": "TokenURIGenEvent",
      "type": "event"
    },
    {
      "anonymous": false,
      "inputs": [
        {
          "indexed": true,
          "internalType": "address",
          "name": "_from",
          "type": "address"
        },
        {
          "indexed": true,
          "internalType": "address",
          "name": "_to",
          "type": "address"
        },
        {
          "indexed": true,
          "internalType": "uint256",
          "name": "_tokenId",
          "type": "uint256"
        }
      ],
      "name": "Transfer",
      "type": "event"
    },
    {
      "anonymous": false,
      "inputs": [
        {
          "indexed": true,
          "internalType": "uint256",
          "name": "_fromTokenId",
          "type": "uint256"
        },
        {
          "indexed": true,
          "internalType": "uint256",
          "name": "_toTokenId",
          "type": "uint256"
        },
        {
          "indexed": false,
          "internalType": "uint256",
          "name": "_value",
          "type": "uint256"
        }
      ],
      "name": "TransferValue",
      "type": "event"
    },
    {
      "anonymous": false,
      "inputs": [
        {
          "indexed": false,
          "internalType": "address",
          "name": "to",
          "type": "address"
        },
        {
          "indexed": false,
          "internalType": "uint256",
          "name": "tokenId",
          "type": "uint256"
        }
      ],
      "name": "mintSBT",
      "type": "event"
    },
    {
      "inputs": [
        {
          "internalType": "uint256",
          "name": "tokenId_",
          "type": "uint256"
        },
        {
          "internalType": "address",
          "name": "operator_",
          "type": "address"
        }
      ],
      "name": "allowance",
      "outputs": [
        {
          "internalType": "uint256",
          "name": "",
          "type": "uint256"
        }
      ],
      "stateMutability": "view",
      "type": "function",
      "constant": true
    },
    {
      "inputs": [
        {
          "internalType": "address",
          "name": "to_",
          "type": "address"
        },
        {
          "internalType": "uint256",
          "name": "tokenId_",
          "type": "uint256"
        }
      ],
      "name": "approve",
      "outputs": [],
      "stateMutability": "payable",
      "type": "function",
      "payable": true
    },
    {
      "inputs": [
        {
          "internalType": "uint256",
          "name": "tokenId_",
          "type": "uint256"
        },
        {
          "internalType": "address",
          "name": "to_",
          "type": "address"
        },
        {
          "internalType": "uint256",
          "name": "value_",
          "type": "uint256"
        }
      ],
      "name": "approve",
      "outputs": [],
      "stateMutability": "payable",
      "type": "function",
      "payable": true
    },
    {
      "inputs": [
        {
          "internalType": "address",
          "name": "owner_",
          "type": "address"
        }
      ],
      "name": "balanceOf",
      "outputs": [
        {
          "internalType": "uint256",
          "name": "balance",
          "type": "uint256"
        }
      ],
      "stateMutability": "view",
      "type": "function",
      "constant": true
    },
    {
      "inputs": [
        {
          "internalType": "uint256",
          "name": "tokenId_",
          "type": "uint256"
        }
      ],
      "name": "balanceOf",
      "outputs": [
        {
          "internalType": "uint256",
          "name": "",
          "type": "uint256"
        }
      ],
      "stateMutability": "view",
      "type": "function",
      "constant": true
    },
    {
      "inputs": [],
      "name": "contractURI",
      "outputs": [
        {
          "internalType": "string",
          "name": "",
          "type": "string"
        }
      ],
      "stateMutability": "view",
      "type": "function",
      "constant": true
    },
    {
      "inputs": [
        {
          "internalType": "uint256",
          "name": "tokenId_",
          "type": "uint256"
        }
      ],
      "name": "getApproved",
      "outputs": [
        {
          "internalType": "address",
          "name": "",
          "type": "address"
        }
      ],
      "stateMutability": "view",
      "type": "function",
      "constant": true
    },
    {
      "inputs": [
        {
          "internalType": "address",
          "name": "owner_",
          "type": "address"
        },
        {
          "internalType": "address",
          "name": "operator_",
          "type": "address"
        }
      ],
      "name": "isApprovedForAll",
      "outputs": [
        {
          "internalType": "bool",
          "name": "",
          "type": "bool"
        }
      ],
      "stateMutability": "view",
      "type": "function",
      "constant": true
    },
    {
      "inputs": [],
      "name": "metadataDescriptor",
      "outputs": [
        {
          "internalType": "contract IERC3525MetadataDescriptor",
          "name": "",
          "type": "address"
        }
      ],
      "stateMutability": "view",
      "type": "function",
      "constant": true
    },
    {
      "inputs": [],
      "name": "name",
      "outputs": [
        {
          "internalType": "string",
          "name": "",
          "type": "string"
        }
      ],
      "stateMutability": "view",
      "type": "function",
      "constant": true
    },
    {
      "inputs": [],
      "name": "owner",
      "outputs": [
        {
          "internalType": "address",
          "name": "",
          "type": "address"
        }
      ],
      "stateMutability": "view",
      "type": "function",
      "constant": true
    },
    {
      "inputs": [
        {
          "internalType": "uint256",
          "name": "tokenId_",
          "type": "uint256"
        }
      ],
      "name": "ownerOf",
      "outputs": [
        {
          "internalType": "address",
          "name": "owner_",
          "type": "address"
        }
      ],
      "stateMutability": "view",
      "type": "function",
      "constant": true
    },
    {
      "inputs": [
        {
          "internalType": "address",
          "name": "from_",
          "type": "address"
        },
        {
          "internalType": "address",
          "name": "to_",
          "type": "address"
        },
        {
          "internalType": "uint256",
          "name": "tokenId_",
          "type": "uint256"
        }
      ],
      "name": "safeTransferFrom",
      "outputs": [],
      "stateMutability": "payable",
      "type": "function",
      "payable": true
    },
    {
      "inputs": [
        {
          "internalType": "address",
          "name": "from_",
          "type": "address"
        },
        {
          "internalType": "address",
          "name": "to_",
          "type": "address"
        },
        {
          "internalType": "uint256",
          "name": "tokenId_",
          "type": "uint256"
        },
        {
          "internalType": "bytes",
          "name": "data_",
          "type": "bytes"
        }
      ],
      "name": "safeTransferFrom",
      "outputs": [],
      "stateMutability": "payable",
      "type": "function",
      "payable": true
    },
    {
      "inputs": [
        {
          "internalType": "address",
          "name": "operator_",
          "type": "address"
        },
        {
          "internalType": "bool",
          "name": "approved_",
          "type": "bool"
        }
      ],
      "name": "setApprovalForAll",
      "outputs": [],
      "stateMutability": "nonpayable",
      "type": "function"
    },
    {
      "inputs": [
        {
          "internalType": "uint256",
          "name": "tokenId_",
          "type": "uint256"
        }
      ],
      "name": "slotOf",
      "outputs": [
        {
          "internalType": "uint256",
          "name": "",
          "type": "uint256"
        }
      ],
      "stateMutability": "view",
      "type": "function",
      "constant": true
    },
    {
      "inputs": [
        {
          "internalType": "uint256",
          "name": "slot_",
          "type": "uint256"
        }
      ],
      "name": "slotURI",
      "outputs": [
        {
          "internalType": "string",
          "name": "",
          "type": "string"
        }
      ],
      "stateMutability": "view",
      "type": "function",
      "constant": true
    },
    {
      "inputs": [
        {
          "internalType": "bytes4",
          "name": "interfaceId",
          "type": "bytes4"
        }
      ],
      "name": "supportsInterface",
      "outputs": [
        {
          "internalType": "bool",
          "name": "",
          "type": "bool"
        }
      ],
      "stateMutability": "view",
      "type": "function",
      "constant": true
    },
    {
      "inputs": [],
      "name": "symbol",
      "outputs": [
        {
          "internalType": "string",
          "name": "",
          "type": "string"
        }
      ],
      "stateMutability": "view",
      "type": "function",
      "constant": true
    },
    {
      "inputs": [
        {
          "internalType": "uint256",
          "name": "index_",
          "type": "uint256"
        }
      ],
      "name": "tokenByIndex",
      "outputs": [
        {
          "internalType": "uint256",
          "name": "",
          "type": "uint256"
        }
      ],
      "stateMutability": "view",
      "type": "function",
      "constant": true
    },
    {
      "inputs": [
        {
          "internalType": "address",
          "name": "owner_",
          "type": "address"
        },
        {
          "internalType": "uint256",
          "name": "index_",
          "type": "uint256"
        }
      ],
      "name": "tokenOfOwnerByIndex",
      "outputs": [
        {
          "internalType": "uint256",
          "name": "",
          "type": "uint256"
        }
      ],
      "stateMutability": "view",
      "type": "function",
      "constant": true
    },
    {
      "inputs": [
        {
          "internalType": "uint256",
          "name": "tokenId_",
          "type": "uint256"
        }
      ],
      "name": "tokenURI",
      "outputs": [
        {
          "internalType": "string",
          "name": "",
          "type": "string"
        }
      ],
      "stateMutability": "view",
      "type": "function",
      "constant": true
    },
    {
      "inputs": [],
      "name": "totalSupply",
      "outputs": [
        {
          "internalType": "uint256",
          "name": "",
          "type": "uint256"
        }
      ],
      "stateMutability": "view",
      "type": "function",
      "constant": true
    },
    {
      "inputs": [
        {
          "internalType": "uint256",
          "name": "fromTokenId_",
          "type": "uint256"
        },
        {
          "internalType": "address",
          "name": "to_",
          "type": "address"
        },
        {
          "internalType": "uint256",
          "name": "value_",
          "type": "uint256"
        }
      ],
      "name": "transferFrom",
      "outputs": [
        {
          "internalType": "uint256",
          "name": "newTokenId",
          "type": "uint256"
        }
      ],
      "stateMutability": "payable",
      "type": "function",
      "payable": true
    },
    {
      "inputs": [
        {
          "internalType": "address",
          "name": "from_",
          "type": "address"
        },
        {
          "internalType": "address",
          "name": "to_",
          "type": "address"
        },
        {
          "internalType": "uint256",
          "name": "tokenId_",
          "type": "uint256"
        }
      ],
      "name": "transferFrom",
      "outputs": [],
      "stateMutability": "payable",
      "type": "function",
      "payable": true
    },
    {
      "inputs": [
        {
          "internalType": "uint256",
          "name": "fromTokenId_",
          "type": "uint256"
        },
        {
          "internalType": "uint256",
          "name": "toTokenId_",
          "type": "uint256"
        },
        {
          "internalType": "uint256",
          "name": "value_",
          "type": "uint256"
        }
      ],
      "name": "transferFrom",
      "outputs": [],
      "stateMutability": "payable",
      "type": "function",
      "payable": true
    },
    {
      "inputs": [],
      "name": "valueDecimals",
      "outputs": [
        {
          "internalType": "uint8",
          "name": "",
          "type": "uint8"
        }
      ],
      "stateMutability": "view",
      "type": "function",
      "constant": true
    },
    {
      "inputs": [
        {
          "internalType": "address",
          "name": "to_",
          "type": "address"
        },
        {
          "internalType": "uint256",
          "name": "slot_",
          "type": "uint256"
        },
        {
          "internalType": "uint256",
          "name": "amount_",
          "type": "uint256"
        },
        {
          "internalType": "int256",
          "name": "name_",
          "type": "int256"
        },
        {
          "internalType": "int256",
          "name": "department_",
          "type": "int256"
        },
        {
          "internalType": "int256",
          "name": "onBoardingTime_",
          "type": "int256"
        },
        {
          "internalType": "int256[]",
          "name": "disclosure_",
          "type": "int256[]"
        },
        {
          "internalType": "address",
          "name": "_oracleAddress",
          "type": "address"
        }
      ],
      "name": "mint",
      "outputs": [
        {
          "internalType": "uint256",
          "name": "",
          "type": "uint256"
        }
      ],
      "stateMutability": "nonpayable",
      "type": "function"
    },
    {
      "inputs": [
        {
          "internalType": "uint256",
          "name": "tokenId_",
          "type": "uint256"
        },
        {
          "internalType": "int256",
          "name": "name_",
          "type": "int256"
        },
        {
          "internalType": "int256",
          "name": "department_",
          "type": "int256"
        },
        {
          "internalType": "int256",
          "name": "onBoardingTime_",
          "type": "int256"
        },
        {
          "internalType": "int256[]",
          "name": "disclosure_",
          "type": "int256[]"
        },
        {
          "internalType": "address",
          "name": "_oracleAddress",
          "type": "address"
        }
      ],
      "name": "tokenURI_Request",
      "outputs": [],
      "stateMutability": "nonpayable",
      "type": "function"
    },
    {
      "inputs": [
        {
          "internalType": "uint256",
          "name": "tokenId_",
          "type": "uint256"
        },
        {
          "internalType": "uint256[]",
          "name": "revealAttr",
          "type": "uint256[]"
        },
        {
          "internalType": "string",
          "name": "unRevealAttr",
          "type": "string"
        },
        {
          "internalType": "string",
          "name": "nymCred",
          "type": "string"
        }
      ],
      "name": "tokenURI_Res",
      "outputs": [],
      "stateMutability": "nonpayable",
      "type": "function"
    }
  ],
  "bytecode": "0x60806040523480156200001157600080fd5b50604051620062d4380380620062d4833981810160405281019062000037919062000257565b6040518060400160405280600381526020017f53425400000000000000000000000000000000000000000000000000000000008152506040518060400160405280600981526020017f455243333532354753000000000000000000000000000000000000000000000081525060128260009080519060200190620000bd9291906200013d565b508160019080519060200190620000d69291906200013d565b5080600260006101000a81548160ff021916908360ff16021790555050505080600960006101000a81548173ffffffffffffffffffffffffffffffffffffffff021916908373ffffffffffffffffffffffffffffffffffffffff16021790555050620002ee565b8280546200014b90620002b8565b90600052602060002090601f0160209004810192826200016f5760008555620001bb565b82601f106200018a57805160ff1916838001178555620001bb565b82800160010185558215620001bb579182015b82811115620001ba5782518255916020019190600101906200019d565b5b509050620001ca9190620001ce565b5090565b5b80821115620001e9576000816000905550600101620001cf565b5090565b600080fd5b600073ffffffffffffffffffffffffffffffffffffffff82169050919050565b60006200021f82620001f2565b9050919050565b620002318162000212565b81146200023d57600080fd5b50565b600081519050620002518162000226565b92915050565b60006020828403121562000270576200026f620001ed565b5b6000620002808482850162000240565b91505092915050565b7f4e487b7100000000000000000000000000000000000000000000000000000000600052602260045260246000fd5b60006002820490506001821680620002d157607f821691505b60208210811415620002e857620002e762000289565b5b50919050565b615fd680620002fe6000396000f3fe6080604052600436106101cd5760003560e01c80634f6ccce7116100f75780639cc7f70811610095578063e345e0bc11610064578063e345e0bc1461069d578063e8a3d485146106da578063e985e9c514610705578063f6c8133114610742576101cd565b80639cc7f708146105de578063a22cb4651461061b578063b88d4fde14610644578063c87b56dd14610660576101cd565b8063840f7113116100d1578063840f7113146105415780638cb0a5111461056c5780638da5cb5b1461058857806395d89b41146105b3576101cd565b80634f6ccce71461048a5780636352211e146104c757806370a0823114610504576101cd565b806323b872dd1161016f578063310ed7f01161013e578063310ed7f0146103fe5780633e7e86691461041a5780634281a4a81461044557806342842e0e1461046e576101cd565b806323b872dd1461032b578063263f3e7e146103475780632b85de53146103845780632f745c59146103c1576101cd565b8063095ea7b3116101ab578063095ea7b31461027757806309c3dd87146102935780630f485c02146102d057806318160ddd14610300576101cd565b806301ffc9a7146101d257806306fdde031461020f578063081812fc1461023a575b600080fd5b3480156101de57600080fd5b506101f960048036038101906101f491906139f9565b61076b565b6040516102069190613a41565b60405180910390f35b34801561021b57600080fd5b506102246109dd565b6040516102319190613af5565b60405180910390f35b34801561024657600080fd5b50610261600480360381019061025c9190613b4d565b610a6f565b60405161026e9190613bbb565b60405180910390f35b610291600480360381019061028c9190613c02565b610ada565b005b34801561029f57600080fd5b506102ba60048036038101906102b59190613b4d565b610bf2565b6040516102c79190613af5565b60405180910390f35b6102ea60048036038101906102e59190613c42565b610d5e565b6040516102f79190613ca4565b60405180910390f35b34801561030c57600080fd5b50610315610da4565b6040516103229190613ca4565b60405180910390f35b61034560048036038101906103409190613cbf565b610db1565b005b34801561035357600080fd5b5061036e60048036038101906103699190613b4d565b610e11565b60405161037b9190613ca4565b60405180910390f35b34801561039057600080fd5b506103ab60048036038101906103a69190613e90565b610e5c565b6040516103b89190613ca4565b60405180910390f35b3480156103cd57600080fd5b506103e860048036038101906103e39190613c02565b610f1b565b6040516103f59190613ca4565b60405180910390f35b61041860048036038101906104139190613f62565b610fce565b005b34801561042657600080fd5b5061042f610ff0565b60405161043c9190613fd1565b60405180910390f35b34801561045157600080fd5b5061046c60048036038101906104679190614164565b611007565b005b61048860048036038101906104839190613cbf565b611151565b005b34801561049657600080fd5b506104b160048036038101906104ac9190613b4d565b611171565b6040516104be9190613ca4565b60405180910390f35b3480156104d357600080fd5b506104ee60048036038101906104e99190613b4d565b6111e9565b6040516104fb9190613bbb565b60405180910390f35b34801561051057600080fd5b5061052b6004803603810190610526919061421f565b6112c4565b6040516105389190613ca4565b60405180910390f35b34801561054d57600080fd5b50610556611382565b60405161056391906142ab565b60405180910390f35b61058660048036038101906105819190613c42565b6113a8565b005b34801561059457600080fd5b5061059d611485565b6040516105aa9190613bbb565b60405180910390f35b3480156105bf57600080fd5b506105c86114ab565b6040516105d59190613af5565b60405180910390f35b3480156105ea57600080fd5b5061060560048036038101906106009190613b4d565b61153d565b6040516106129190613ca4565b60405180910390f35b34801561062757600080fd5b50610642600480360381019061063d91906142f2565b611588565b005b61065e600480360381019061065991906143d3565b61159e565b005b34801561066c57600080fd5b5061068760048036038101906106829190613b4d565b611600565b6040516106949190613af5565b60405180910390f35b3480156106a957600080fd5b506106c460048036038101906106bf9190614456565b611775565b6040516106d19190613ca4565b60405180910390f35b3480156106e657600080fd5b506106ef6117d9565b6040516106fc9190613af5565b60405180910390f35b34801561071157600080fd5b5061072c60048036038101906107279190614496565b611938565b6040516107399190613a41565b60405180910390f35b34801561074e57600080fd5b50610769600480360381019061076491906144d6565b6119cf565b005b60007f01ffc9a7000000000000000000000000000000000000000000000000000000007bffffffffffffffffffffffffffffffffffffffffffffffffffffffff1916827bffffffffffffffffffffffffffffffffffffffffffffffffffffffff1916148061083657507fd5358140000000000000000000000000000000000000000000000000000000007bffffffffffffffffffffffffffffffffffffffffffffffffffffffff1916827bffffffffffffffffffffffffffffffffffffffffffffffffffffffff1916145b8061089e57507f80ac58cd000000000000000000000000000000000000000000000000000000007bffffffffffffffffffffffffffffffffffffffffffffffffffffffff1916827bffffffffffffffffffffffffffffffffffffffffffffffffffffffff1916145b8061090657507fe1600902000000000000000000000000000000000000000000000000000000007bffffffffffffffffffffffffffffffffffffffffffffffffffffffff1916827bffffffffffffffffffffffffffffffffffffffffffffffffffffffff1916145b8061096e57507f780e9d63000000000000000000000000000000000000000000000000000000007bffffffffffffffffffffffffffffffffffffffffffffffffffffffff1916827bffffffffffffffffffffffffffffffffffffffffffffffffffffffff1916145b806109d657507f5b5e139f000000000000000000000000000000000000000000000000000000007bffffffffffffffffffffffffffffffffffffffffffffffffffffffff1916827bffffffffffffffffffffffffffffffffffffffffffffffffffffffff1916145b9050919050565b6060600080546109ec906145ae565b80601f0160208091040260200160405190810160405280929190818152602001828054610a18906145ae565b8015610a655780601f10610a3a57610100808354040283529160200191610a65565b820191906000526020600020905b815481529060010190602001808311610a4857829003601f168201915b5050505050905090565b6000610a7a82611b79565b6005600660008481526020019081526020016000205481548110610aa157610aa06145e0565b5b906000526020600020906006020160040160009054906101000a900473ffffffffffffffffffffffffffffffffffffffff169050919050565b6000610ae5826111e9565b90508073ffffffffffffffffffffffffffffffffffffffff168373ffffffffffffffffffffffffffffffffffffffff161415610b56576040517f08c379a0000000000000000000000000000000000000000000000000000000008152600401610b4d90614681565b60405180910390fd5b8073ffffffffffffffffffffffffffffffffffffffff16610b75611bc4565b73ffffffffffffffffffffffffffffffffffffffff161480610ba45750610ba381610b9e611bc4565b611938565b5b610be3576040517f08c379a0000000000000000000000000000000000000000000000000000000008152600401610bda90614713565b60405180910390fd5b610bed8383611bcc565b505050565b60606000610bfe611caa565b9050600073ffffffffffffffffffffffffffffffffffffffff16600860009054906101000a900473ffffffffffffffffffffffffffffffffffffffff1673ffffffffffffffffffffffffffffffffffffffff161415610ca5576000815111610c755760405180602001604052806000815250610ca0565b80610c7f84611cc1565b604051602001610c909291906147bb565b6040516020818303038152906040525b610d56565b600860009054906101000a900473ffffffffffffffffffffffffffffffffffffffff1673ffffffffffffffffffffffffffffffffffffffff16636c037f8a846040518263ffffffff1660e01b8152600401610d009190613ca4565b60006040518083038186803b158015610d1857600080fd5b505afa158015610d2c573d6000803e3d6000fd5b505050506040513d6000823e3d601f19601f82011682018060405250810190610d55919061485a565b5b915050919050565b6000610d72610d6b611bc4565b8584611d99565b610d7b84611e43565b9050610d928382610d8b87610e11565b6000611e54565b610d9d848284611f8c565b9392505050565b6000600580549050905090565b610dc2610dbc611bc4565b826122a3565b610e01576040517f08c379a0000000000000000000000000000000000000000000000000000000008152600401610df890614915565b60405180910390fd5b610e0c838383612338565b505050565b6000610e1c82611b79565b6005600660008481526020019081526020016000205481548110610e4357610e426145e0565b5b9060005260206000209060060201600101549050919050565b6000600960009054906101000a900473ffffffffffffffffffffffffffffffffffffffff1673ffffffffffffffffffffffffffffffffffffffff163373ffffffffffffffffffffffffffffffffffffffff1614610eee576040517f08c379a0000000000000000000000000000000000000000000000000000000008152600401610ee590614981565b60405180910390fd5b6000610efb8a8a8a6124de565b9050610f0b8188888888886119cf565b8091505098975050505050505050565b6000610f26836112c4565b8210610f67576040517f08c379a0000000000000000000000000000000000000000000000000000000008152600401610f5e90614a13565b60405180910390fd5b600760008473ffffffffffffffffffffffffffffffffffffffff1673ffffffffffffffffffffffffffffffffffffffff1681526020019081526020016000206000018281548110610fbb57610fba6145e0565b5b9060005260206000200154905092915050565b610fe0610fd9611bc4565b8483611d99565b610feb838383611f8c565b505050565b6000600260009054906101000a900460ff16905090565b600a60009054906101000a900473ffffffffffffffffffffffffffffffffffffffff1673ffffffffffffffffffffffffffffffffffffffff163373ffffffffffffffffffffffffffffffffffffffff1614611097576040517f08c379a000000000000000000000000000000000000000000000000000000000815260040161108e90614aa5565b60405180910390fd5b60006110a285611cc1565b6110c6856000815181106110b9576110b86145e0565b5b6020026020010151611cc1565b6110ea866001815181106110dd576110dc6145e0565b5b6020026020010151611cc1565b8585604051602001611100959493929190614de3565b60405160208183030381529060405290507f3fb6cb5673fe2f5eb7912555b1079922b74b33d1c3de3f66bb01f4eff307674f8582604051611142929190614e9c565b60405180910390a15050505050565b61116c8383836040518060200160405280600081525061159e565b505050565b600061117b610da4565b82106111bc576040517f08c379a00000000000000000000000000000000000000000000000000000000081526004016111b390614f3e565b60405180910390fd5b600582815481106111d0576111cf6145e0565b5b9060005260206000209060060201600001549050919050565b60006111f482611b79565b600560066000848152602001908152602001600020548154811061121b5761121a6145e0565b5b906000526020600020906006020160030160009054906101000a900473ffffffffffffffffffffffffffffffffffffffff169050600073ffffffffffffffffffffffffffffffffffffffff168173ffffffffffffffffffffffffffffffffffffffff1614156112bf576040517f08c379a00000000000000000000000000000000000000000000000000000000081526004016112b690614faa565b60405180910390fd5b919050565b60008073ffffffffffffffffffffffffffffffffffffffff168273ffffffffffffffffffffffffffffffffffffffff161415611335576040517f08c379a000000000000000000000000000000000000000000000000000000000815260040161132c9061503c565b60405180910390fd5b600760008373ffffffffffffffffffffffffffffffffffffffff1673ffffffffffffffffffffffffffffffffffffffff168152602001908152602001600020600001805490509050919050565b600860009054906101000a900473ffffffffffffffffffffffffffffffffffffffff1681565b60006113b3846111e9565b90508073ffffffffffffffffffffffffffffffffffffffff168373ffffffffffffffffffffffffffffffffffffffff161415611424576040517f08c379a000000000000000000000000000000000000000000000000000000000815260040161141b90614681565b60405180910390fd5b61143561142f611bc4565b856122a3565b611474576040517f08c379a000000000000000000000000000000000000000000000000000000000815260040161146b906150ce565b60405180910390fd5b61147f8484846124fd565b50505050565b600960009054906101000a900473ffffffffffffffffffffffffffffffffffffffff1681565b6060600180546114ba906145ae565b80601f01602080910402602001604051908101604052809291908181526020018280546114e6906145ae565b80156115335780601f1061150857610100808354040283529160200191611533565b820191906000526020600020905b81548152906001019060200180831161151657829003601f168201915b5050505050905090565b600061154882611b79565b600560066000848152602001908152602001600020548154811061156f5761156e6145e0565b5b9060005260206000209060060201600201549050919050565b61159a611593611bc4565b83836126be565b5050565b6115af6115a9611bc4565b836122a3565b6115ee576040517f08c379a00000000000000000000000000000000000000000000000000000000081526004016115e590614915565b60405180910390fd5b6115fa8484848461282e565b50505050565b606061160b82611b79565b6000611615611caa565b9050600073ffffffffffffffffffffffffffffffffffffffff16600860009054906101000a900473ffffffffffffffffffffffffffffffffffffffff1673ffffffffffffffffffffffffffffffffffffffff1614156116bc57600081511161168c57604051806020016040528060008152506116b7565b8061169684611cc1565b6040516020016116a79291906150ee565b6040516020818303038152906040525b61176d565b600860009054906101000a900473ffffffffffffffffffffffffffffffffffffffff1673ffffffffffffffffffffffffffffffffffffffff1663894b4c2e846040518263ffffffff1660e01b81526004016117179190613ca4565b60006040518083038186803b15801561172f57600080fd5b505afa158015611743573d6000803e3d6000fd5b505050506040513d6000823e3d601f19601f8201168201806040525081019061176c919061485a565b5b915050919050565b600061178083611b79565b6004600084815260200190815260200160002060008373ffffffffffffffffffffffffffffffffffffffff1673ffffffffffffffffffffffffffffffffffffffff16815260200190815260200160002054905092915050565b606060006117e5611caa565b9050600073ffffffffffffffffffffffffffffffffffffffff16600860009054906101000a900473ffffffffffffffffffffffffffffffffffffffff1673ffffffffffffffffffffffffffffffffffffffff16141561188c57600081511161185c5760405180602001604052806000815250611887565b806118663061288a565b60405160200161187792919061515e565b6040516020818303038152906040525b611932565b600860009054906101000a900473ffffffffffffffffffffffffffffffffffffffff1673ffffffffffffffffffffffffffffffffffffffff1663725fa09c6040518163ffffffff1660e01b815260040160006040518083038186803b1580156118f457600080fd5b505afa158015611908573d6000803e3d6000fd5b505050506040513d6000823e3d601f19601f82011682018060405250810190611931919061485a565b5b91505090565b6000600760008473ffffffffffffffffffffffffffffffffffffffff1673ffffffffffffffffffffffffffffffffffffffff16815260200190815260200160002060020160008373ffffffffffffffffffffffffffffffffffffffff1673ffffffffffffffffffffffffffffffffffffffff16815260200190815260200160002060009054906101000a900460ff16905092915050565b600960009054906101000a900473ffffffffffffffffffffffffffffffffffffffff1673ffffffffffffffffffffffffffffffffffffffff163373ffffffffffffffffffffffffffffffffffffffff1614611a5f576040517f08c379a0000000000000000000000000000000000000000000000000000000008152600401611a56906151d9565b60405180910390fd5b80600a60006101000a81548173ffffffffffffffffffffffffffffffffffffffff021916908373ffffffffffffffffffffffffffffffffffffffff16021790555060008173ffffffffffffffffffffffffffffffffffffffff1663bd5548ac88888888886040518663ffffffff1660e01b8152600401611ae39594939291906152c6565b602060405180830381600087803b158015611afd57600080fd5b505af1158015611b11573d6000803e3d6000fd5b505050506040513d601f19601f82011682018060405250810190611b359190615335565b90507f5f02ee0b6f687ab61777cdb228f70b4b7c99bd112aa272f4d3fd5b955f0a452a8782604051611b68929190615362565b60405180910390a150505050505050565b611b82816128b7565b611bc1576040517f08c379a0000000000000000000000000000000000000000000000000000000008152600401611bb890614faa565b60405180910390fd5b50565b600033905090565b816005600660008481526020019081526020016000205481548110611bf457611bf36145e0565b5b906000526020600020906006020160040160006101000a81548173ffffffffffffffffffffffffffffffffffffffff021916908373ffffffffffffffffffffffffffffffffffffffff160217905550808273ffffffffffffffffffffffffffffffffffffffff16611c64836111e9565b73ffffffffffffffffffffffffffffffffffffffff167f8c5be1e5ebec7d5bd14f71427d1e84f3dd0314c0f7b2291e5b200ac8c7c3b92560405160405180910390a45050565b606060405180602001604052806000815250905090565b606060006001611cd08461290c565b01905060008167ffffffffffffffff811115611cef57611cee613d4d565b5b6040519080825280601f01601f191660200182016040528015611d215781602001600182028036833780820191505090505b509050600082602001820190505b600115611d8e578080600190039150507f3031323334353637383961626364656600000000000000000000000000000000600a86061a8153600a8581611d7857611d7761538b565b5b0494506000851415611d8957611d8e565b611d2f565b819350505050919050565b6000611da58385611775565b9050611db184846122a3565b158015611dde57507fffffffffffffffffffffffffffffffffffffffffffffffffffffffffffffffff8114155b15611e3d5781811015611e26576040517f08c379a0000000000000000000000000000000000000000000000000000000008152600401611e1d90615406565b60405180910390fd5b611e3c83858484611e379190615455565b6124fd565b5b50505050565b6000611e4d612a5f565b9050919050565b600073ffffffffffffffffffffffffffffffffffffffff168473ffffffffffffffffffffffffffffffffffffffff161415611ec4576040517f08c379a0000000000000000000000000000000000000000000000000000000008152600401611ebb906154fb565b60405180910390fd5b6000831415611f08576040517f08c379a0000000000000000000000000000000000000000000000000000000008152600401611eff9061558d565b60405180910390fd5b611f11836128b7565b15611f51576040517f08c379a0000000000000000000000000000000000000000000000000000000008152600401611f48906155f9565b60405180910390fd5b611f616000856000868686612a7a565b611f6c848484612a82565b611f768382612bcf565b611f866000856000868686612c5c565b50505050565b611f95836128b7565b611fd4576040517f08c379a0000000000000000000000000000000000000000000000000000000008152600401611fcb9061568b565b60405180910390fd5b611fdd826128b7565b61201c576040517f08c379a00000000000000000000000000000000000000000000000000000000081526004016120139061571d565b60405180910390fd5b60006005600660008681526020019081526020016000205481548110612045576120446145e0565b5b906000526020600020906006020190506000600560066000868152602001908152602001600020548154811061207e5761207d6145e0565b5b9060005260206000209060060201905082826002015410156120d5576040517f08c379a00000000000000000000000000000000000000000000000000000000081526004016120cc906157af565b60405180910390fd5b806001015482600101541461211f576040517f08c379a000000000000000000000000000000000000000000000000000000000815260040161211690615841565b60405180910390fd5b6121798260030160009054906101000a900473ffffffffffffffffffffffffffffffffffffffff168260030160009054906101000a900473ffffffffffffffffffffffffffffffffffffffff168787866001015488612a7a565b8282600201600082825461218d9190615455565b92505081905550828160020160008282546121a89190615861565b9250508190555083857f0b2aac84f3ec956911fd78eae5311062972ff949f38412e8da39069d9f068cc6856040516121e09190613ca4565b60405180910390a36122428260030160009054906101000a900473ffffffffffffffffffffffffffffffffffffffff168260030160009054906101000a900473ffffffffffffffffffffffffffffffffffffffff168787866001015488612c5c565b61225d85858560405180602001604052806000815250612c64565b61229c576040517f08c379a000000000000000000000000000000000000000000000000000000000815260040161229390615929565b60405180910390fd5b5050505050565b6000806122af836111e9565b90508073ffffffffffffffffffffffffffffffffffffffff168473ffffffffffffffffffffffffffffffffffffffff1614806122f157506122f08185611938565b5b8061232f57508373ffffffffffffffffffffffffffffffffffffffff1661231784610a6f565b73ffffffffffffffffffffffffffffffffffffffff16145b91505092915050565b8273ffffffffffffffffffffffffffffffffffffffff16612358826111e9565b73ffffffffffffffffffffffffffffffffffffffff16146123ae576040517f08c379a00000000000000000000000000000000000000000000000000000000081526004016123a5906159bb565b60405180910390fd5b600073ffffffffffffffffffffffffffffffffffffffff168273ffffffffffffffffffffffffffffffffffffffff16141561241e576040517f08c379a000000000000000000000000000000000000000000000000000000000815260040161241590615a4d565b60405180910390fd5b600061242982610e11565b905060006124368361153d565b9050612446858585868686612a7a565b612451600084611bcc565b61245a83612e41565b6124648584612f54565b61246e84846130f0565b828473ffffffffffffffffffffffffffffffffffffffff168673ffffffffffffffffffffffffffffffffffffffff167fddf252ad1be2c89b69c2b068fc378daa952ba7f163c4a11628f55a4df523b3ef60405160405180910390a46124d7858585868686612c5c565b5050505050565b60006124e8612a5f565b90506124f684828585611e54565b9392505050565b600073ffffffffffffffffffffffffffffffffffffffff168273ffffffffffffffffffffffffffffffffffffffff16141561256d576040517f08c379a000000000000000000000000000000000000000000000000000000000815260040161256490615adf565b60405180910390fd5b6125778284613271565b6126155760056006600085815260200190815260200160002054815481106125a2576125a16145e0565b5b9060005260206000209060060201600501829080600181540180825580915050600190039060005260206000200160009091909190916101000a81548173ffffffffffffffffffffffffffffffffffffffff021916908373ffffffffffffffffffffffffffffffffffffffff1602179055505b806004600085815260200190815260200160002060008473ffffffffffffffffffffffffffffffffffffffff1673ffffffffffffffffffffffffffffffffffffffff168152602001908152602001600020819055508173ffffffffffffffffffffffffffffffffffffffff16837f621b050de0ad08b51d19b48b3e6df75348c4de6bdd93e81b252ca62e28265b1b836040516126b19190613ca4565b60405180910390a3505050565b8173ffffffffffffffffffffffffffffffffffffffff168373ffffffffffffffffffffffffffffffffffffffff16141561272d576040517f08c379a000000000000000000000000000000000000000000000000000000000815260040161272490615b4b565b60405180910390fd5b80600760008573ffffffffffffffffffffffffffffffffffffffff1673ffffffffffffffffffffffffffffffffffffffff16815260200190815260200160002060020160008473ffffffffffffffffffffffffffffffffffffffff1673ffffffffffffffffffffffffffffffffffffffff16815260200190815260200160002060006101000a81548160ff0219169083151502179055508173ffffffffffffffffffffffffffffffffffffffff168373ffffffffffffffffffffffffffffffffffffffff167f17307eab39ab6107e8899845ad3d59bd9653f200f220920489ca2b5937696c31836040516128219190613a41565b60405180910390a3505050565b612839848484612338565b61284584848484613390565b612884576040517f08c379a000000000000000000000000000000000000000000000000000000000815260040161287b90615bdd565b60405180910390fd5b50505050565b60606128b08273ffffffffffffffffffffffffffffffffffffffff16601460ff16613527565b9050919050565b6000806005805490501415801561290557508160056006600085815260200190815260200160002054815481106128f1576128f06145e0565b5b906000526020600020906006020160000154145b9050919050565b600080600090507a184f03e93ff9f4daa797ed6e38ed64bf6a1f010000000000000000831061296a577a184f03e93ff9f4daa797ed6e38ed64bf6a1f01000000000000000083816129605761295f61538b565b5b0492506040810190505b6d04ee2d6d415b85acef810000000083106129a7576d04ee2d6d415b85acef8100000000838161299d5761299c61538b565b5b0492506020810190505b662386f26fc1000083106129d657662386f26fc1000083816129cc576129cb61538b565b5b0492506010810190505b6305f5e10083106129ff576305f5e10083816129f5576129f461538b565b5b0492506008810190505b6127108310612a24576127108381612a1a57612a1961538b565b5b0492506004810190505b60648310612a475760648381612a3d57612a3c61538b565b5b0492506002810190505b600a8310612a56576001810190505b80915050919050565b6000612a6b6003613763565b612a756003613779565b905090565b505050505050565b60006040518060c00160405280848152602001838152602001600081526020018573ffffffffffffffffffffffffffffffffffffffff168152602001600073ffffffffffffffffffffffffffffffffffffffff168152602001600067ffffffffffffffff811115612af657612af5613d4d565b5b604051908082528060200260200182016040528015612b245781602001602082028036833780820191505090505b508152509050612b3381613787565b612b3d84846130f0565b828473ffffffffffffffffffffffffffffffffffffffff16600073ffffffffffffffffffffffffffffffffffffffff167fddf252ad1be2c89b69c2b068fc378daa952ba7f163c4a11628f55a4df523b3ef60405160405180910390a4816000847fe4f48c240d3b994948aa54f3e2f5fca59263dfe1d52b6e4cf39a5d249b5ccb6560405160405180910390a450505050565b806005600660008581526020019081526020016000205481548110612bf757612bf66145e0565b5b90600052602060002090600602016002016000828254612c179190615861565b925050819055508160007f0b2aac84f3ec956911fd78eae5311062972ff949f38412e8da39069d9f068cc683604051612c509190613ca4565b60405180910390a35050565b505050505050565b600080612c70856111e9565b9050612c918173ffffffffffffffffffffffffffffffffffffffff166138a2565b8015612d4157508073ffffffffffffffffffffffffffffffffffffffff166301ffc9a77e9ce20b000000000000000000000000000000000000000000000000000000006040518263ffffffff1660e01b8152600401612cf09190615c0c565b60206040518083038186803b158015612d0857600080fd5b505afa158015612d1c573d6000803e3d6000fd5b505050506040513d601f19601f82011682018060405250810190612d409190615c3c565b5b15612e335760008173ffffffffffffffffffffffffffffffffffffffff16629ce20b612d6b611bc4565b898989896040518663ffffffff1660e01b8152600401612d8f959493929190615cbe565b602060405180830381600087803b158015612da957600080fd5b505af1158015612dbd573d6000803e3d6000fd5b505050506040513d601f19601f82011682018060405250810190612de19190615d2d565b9050629ce20b60e01b7bffffffffffffffffffffffffffffffffffffffffffffffffffffffff1916817bffffffffffffffffffffffffffffffffffffffffffffffffffffffff19161492505050612e39565b60019150505b949350505050565b60006005600660008481526020019081526020016000205481548110612e6a57612e696145e0565b5b9060005260206000209060060201905060008160050180549050905060005b81811015612f3e576000836005018281548110612ea957612ea86145e0565b5b9060005260206000200160009054906101000a900473ffffffffffffffffffffffffffffffffffffffff1690506004600086815260200190815260200160002060008273ffffffffffffffffffffffffffffffffffffffff1673ffffffffffffffffffffffffffffffffffffffff16815260200190815260200160002060009055508080612f3690615d5a565b915050612e89565b50816005016000612f4f91906138c5565b505050565b60006005600660008481526020019081526020016000205481548110612f7d57612f7c6145e0565b5b906000526020600020906006020160030160006101000a81548173ffffffffffffffffffffffffffffffffffffffff021916908373ffffffffffffffffffffffffffffffffffffffff1602179055506000600760008473ffffffffffffffffffffffffffffffffffffffff1673ffffffffffffffffffffffffffffffffffffffff16815260200190815260200160002090506000600182600001805490506130259190615455565b9050600082600001828154811061303f5761303e6145e0565b5b9060005260206000200154905060008360010160008681526020019081526020016000205490508184600001828154811061307d5761307c6145e0565b5b9060005260206000200181905550808460010160008481526020019081526020016000208190555083600101600086815260200190815260200160002060009055836000018054806130d2576130d1615da3565b5b60019003818190600052602060002001600090559055505050505050565b816005600660008481526020019081526020016000205481548110613118576131176145e0565b5b906000526020600020906006020160030160006101000a81548173ffffffffffffffffffffffffffffffffffffffff021916908373ffffffffffffffffffffffffffffffffffffffff160217905550600760008373ffffffffffffffffffffffffffffffffffffffff1673ffffffffffffffffffffffffffffffffffffffff16815260200190815260200160002060000180549050600760008473ffffffffffffffffffffffffffffffffffffffff1673ffffffffffffffffffffffffffffffffffffffff168152602001908152602001600020600101600083815260200190815260200160002081905550600760008373ffffffffffffffffffffffffffffffffffffffff1673ffffffffffffffffffffffffffffffffffffffff1681526020019081526020016000206000018190806001815401808255809150506001900390600052602060002001600090919091909150555050565b600080600560066000858152602001908152602001600020548154811061329b5761329a6145e0565b5b906000526020600020906006020160050180549050905060005b81811015613383578473ffffffffffffffffffffffffffffffffffffffff1660056006600087815260200190815260200160002054815481106132fb576132fa6145e0565b5b9060005260206000209060060201600501828154811061331e5761331d6145e0565b5b9060005260206000200160009054906101000a900473ffffffffffffffffffffffffffffffffffffffff1673ffffffffffffffffffffffffffffffffffffffff1614156133705760019250505061338a565b808061337b90615d5a565b9150506132b5565b5060009150505b92915050565b60006133b18473ffffffffffffffffffffffffffffffffffffffff166138a2565b1561351a578373ffffffffffffffffffffffffffffffffffffffff1663150b7a026133da611bc4565b8786866040518563ffffffff1660e01b81526004016133fc9493929190615dd2565b602060405180830381600087803b15801561341657600080fd5b505af192505050801561344757506040513d601f19601f820116820180604052508101906134449190615d2d565b60015b6134ca573d8060008114613477576040519150601f19603f3d011682016040523d82523d6000602084013e61347c565b606091505b506000815114156134c2576040517f08c379a00000000000000000000000000000000000000000000000000000000081526004016134b990615e90565b60405180910390fd5b805181602001fd5b63150b7a0260e01b7bffffffffffffffffffffffffffffffffffffffffffffffffffffffff1916817bffffffffffffffffffffffffffffffffffffffffffffffffffffffff19161491505061351f565b600190505b949350505050565b60606000600283600261353a9190615eb0565b6135449190615861565b67ffffffffffffffff81111561355d5761355c613d4d565b5b6040519080825280601f01601f19166020018201604052801561358f5781602001600182028036833780820191505090505b5090507f3000000000000000000000000000000000000000000000000000000000000000816000815181106135c7576135c66145e0565b5b60200101907effffffffffffffffffffffffffffffffffffffffffffffffffffffffffffff1916908160001a9053507f78000000000000000000000000000000000000000000000000000000000000008160018151811061362b5761362a6145e0565b5b60200101907effffffffffffffffffffffffffffffffffffffffffffffffffffffffffffff1916908160001a9053506000600184600261366b9190615eb0565b6136759190615861565b90505b6001811115613715577f3031323334353637383961626364656600000000000000000000000000000000600f8616601081106136b7576136b66145e0565b5b1a60f81b8282815181106136ce576136cd6145e0565b5b60200101907effffffffffffffffffffffffffffffffffffffffffffffffffffffffffffff1916908160001a905350600485901c94508061370e90615f0a565b9050613678565b5060008414613759576040517f08c379a000000000000000000000000000000000000000000000000000000000815260040161375090615f80565b60405180910390fd5b8091505092915050565b6001816000016000828254019250508190555050565b600081600001549050919050565b600580549050600660008360000151815260200190815260200160002081905550600581908060018154018082558091505060019003906000526020600020906006020160009091909190915060008201518160000155602082015181600101556040820151816002015560608201518160030160006101000a81548173ffffffffffffffffffffffffffffffffffffffff021916908373ffffffffffffffffffffffffffffffffffffffff16021790555060808201518160040160006101000a81548173ffffffffffffffffffffffffffffffffffffffff021916908373ffffffffffffffffffffffffffffffffffffffff16021790555060a082015181600501908051906020019061389c9291906138e6565b50505050565b6000808273ffffffffffffffffffffffffffffffffffffffff163b119050919050565b50805460008255906000526020600020908101906138e39190613970565b50565b82805482825590600052602060002090810192821561395f579160200282015b8281111561395e5782518260006101000a81548173ffffffffffffffffffffffffffffffffffffffff021916908373ffffffffffffffffffffffffffffffffffffffff16021790555091602001919060010190613906565b5b50905061396c9190613970565b5090565b5b80821115613989576000816000905550600101613971565b5090565b6000604051905090565b600080fd5b600080fd5b60007fffffffff0000000000000000000000000000000000000000000000000000000082169050919050565b6139d6816139a1565b81146139e157600080fd5b50565b6000813590506139f3816139cd565b92915050565b600060208284031215613a0f57613a0e613997565b5b6000613a1d848285016139e4565b91505092915050565b60008115159050919050565b613a3b81613a26565b82525050565b6000602082019050613a566000830184613a32565b92915050565b600081519050919050565b600082825260208201905092915050565b60005b83811015613a96578082015181840152602081019050613a7b565b83811115613aa5576000848401525b50505050565b6000601f19601f8301169050919050565b6000613ac782613a5c565b613ad18185613a67565b9350613ae1818560208601613a78565b613aea81613aab565b840191505092915050565b60006020820190508181036000830152613b0f8184613abc565b905092915050565b6000819050919050565b613b2a81613b17565b8114613b3557600080fd5b50565b600081359050613b4781613b21565b92915050565b600060208284031215613b6357613b62613997565b5b6000613b7184828501613b38565b91505092915050565b600073ffffffffffffffffffffffffffffffffffffffff82169050919050565b6000613ba582613b7a565b9050919050565b613bb581613b9a565b82525050565b6000602082019050613bd06000830184613bac565b92915050565b613bdf81613b9a565b8114613bea57600080fd5b50565b600081359050613bfc81613bd6565b92915050565b60008060408385031215613c1957613c18613997565b5b6000613c2785828601613bed565b9250506020613c3885828601613b38565b9150509250929050565b600080600060608486031215613c5b57613c5a613997565b5b6000613c6986828701613b38565b9350506020613c7a86828701613bed565b9250506040613c8b86828701613b38565b9150509250925092565b613c9e81613b17565b82525050565b6000602082019050613cb96000830184613c95565b92915050565b600080600060608486031215613cd857613cd7613997565b5b6000613ce686828701613bed565b9350506020613cf786828701613bed565b9250506040613d0886828701613b38565b9150509250925092565b6000819050919050565b613d2581613d12565b8114613d3057600080fd5b50565b600081359050613d4281613d1c565b92915050565b600080fd5b7f4e487b7100000000000000000000000000000000000000000000000000000000600052604160045260246000fd5b613d8582613aab565b810181811067ffffffffffffffff82111715613da457613da3613d4d565b5b80604052505050565b6000613db761398d565b9050613dc38282613d7c565b919050565b600067ffffffffffffffff821115613de357613de2613d4d565b5b602082029050602081019050919050565b600080fd5b6000613e0c613e0784613dc8565b613dad565b90508083825260208201905060208402830185811115613e2f57613e2e613df4565b5b835b81811015613e585780613e448882613d33565b845260208401935050602081019050613e31565b5050509392505050565b600082601f830112613e7757613e76613d48565b5b8135613e87848260208601613df9565b91505092915050565b600080600080600080600080610100898b031215613eb157613eb0613997565b5b6000613ebf8b828c01613bed565b9850506020613ed08b828c01613b38565b9750506040613ee18b828c01613b38565b9650506060613ef28b828c01613d33565b9550506080613f038b828c01613d33565b94505060a0613f148b828c01613d33565b93505060c089013567ffffffffffffffff811115613f3557613f3461399c565b5b613f418b828c01613e62565b92505060e0613f528b828c01613bed565b9150509295985092959890939650565b600080600060608486031215613f7b57613f7a613997565b5b6000613f8986828701613b38565b9350506020613f9a86828701613b38565b9250506040613fab86828701613b38565b9150509250925092565b600060ff82169050919050565b613fcb81613fb5565b82525050565b6000602082019050613fe66000830184613fc2565b92915050565b600067ffffffffffffffff82111561400757614006613d4d565b5b602082029050602081019050919050565b600061402b61402684613fec565b613dad565b9050808382526020820190506020840283018581111561404e5761404d613df4565b5b835b8181101561407757806140638882613b38565b845260208401935050602081019050614050565b5050509392505050565b600082601f83011261409657614095613d48565b5b81356140a6848260208601614018565b91505092915050565b600080fd5b600067ffffffffffffffff8211156140cf576140ce613d4d565b5b6140d882613aab565b9050602081019050919050565b82818337600083830152505050565b6000614107614102846140b4565b613dad565b905082815260208101848484011115614123576141226140af565b5b61412e8482856140e5565b509392505050565b600082601f83011261414b5761414a613d48565b5b813561415b8482602086016140f4565b91505092915050565b6000806000806080858703121561417e5761417d613997565b5b600061418c87828801613b38565b945050602085013567ffffffffffffffff8111156141ad576141ac61399c565b5b6141b987828801614081565b935050604085013567ffffffffffffffff8111156141da576141d961399c565b5b6141e687828801614136565b925050606085013567ffffffffffffffff8111156142075761420661399c565b5b61421387828801614136565b91505092959194509250565b60006020828403121561423557614234613997565b5b600061424384828501613bed565b91505092915050565b6000819050919050565b600061427161426c61426784613b7a565b61424c565b613b7a565b9050919050565b600061428382614256565b9050919050565b600061429582614278565b9050919050565b6142a58161428a565b82525050565b60006020820190506142c0600083018461429c565b92915050565b6142cf81613a26565b81146142da57600080fd5b50565b6000813590506142ec816142c6565b92915050565b6000806040838503121561430957614308613997565b5b600061431785828601613bed565b9250506020614328858286016142dd565b9150509250929050565b600067ffffffffffffffff82111561434d5761434c613d4d565b5b61435682613aab565b9050602081019050919050565b600061437661437184614332565b613dad565b905082815260208101848484011115614392576143916140af565b5b61439d8482856140e5565b509392505050565b600082601f8301126143ba576143b9613d48565b5b81356143ca848260208601614363565b91505092915050565b600080600080608085870312156143ed576143ec613997565b5b60006143fb87828801613bed565b945050602061440c87828801613bed565b935050604061441d87828801613b38565b925050606085013567ffffffffffffffff81111561443e5761443d61399c565b5b61444a878288016143a5565b91505092959194509250565b6000806040838503121561446d5761446c613997565b5b600061447b85828601613b38565b925050602061448c85828601613bed565b9150509250929050565b600080604083850312156144ad576144ac613997565b5b60006144bb85828601613bed565b92505060206144cc85828601613bed565b9150509250929050565b60008060008060008060c087890312156144f3576144f2613997565b5b600061450189828a01613b38565b965050602061451289828a01613d33565b955050604061452389828a01613d33565b945050606061453489828a01613d33565b935050608087013567ffffffffffffffff8111156145555761455461399c565b5b61456189828a01613e62565b92505060a061457289828a01613bed565b9150509295509295509295565b7f4e487b7100000000000000000000000000000000000000000000000000000000600052602260045260246000fd5b600060028204905060018216806145c657607f821691505b602082108114156145da576145d961457f565b5b50919050565b7f4e487b7100000000000000000000000000000000000000000000000000000000600052603260045260246000fd5b7f455243333532353a20617070726f76616c20746f2063757272656e74206f776e60008201527f6572000000000000000000000000000000000000000000000000000000000000602082015250565b600061466b602283613a67565b91506146768261460f565b604082019050919050565b6000602082019050818103600083015261469a8161465e565b9050919050565b7f455243333532353a20617070726f76652063616c6c6572206973206e6f74206f60008201527f776e6572206e6f7220617070726f76656420666f7220616c6c00000000000000602082015250565b60006146fd603983613a67565b9150614708826146a1565b604082019050919050565b6000602082019050818103600083015261472c816146f0565b9050919050565b600081905092915050565b600061474982613a5c565b6147538185614733565b9350614763818560208601613a78565b80840191505092915050565b7f736c6f742f000000000000000000000000000000000000000000000000000000600082015250565b60006147a5600583614733565b91506147b08261476f565b600582019050919050565b60006147c7828561473e565b91506147d282614798565b91506147de828461473e565b91508190509392505050565b60006147fd6147f8846140b4565b613dad565b905082815260208101848484011115614819576148186140af565b5b614824848285613a78565b509392505050565b600082601f83011261484157614840613d48565b5b81516148518482602086016147ea565b91505092915050565b6000602082840312156148705761486f613997565b5b600082015167ffffffffffffffff81111561488e5761488d61399c565b5b61489a8482850161482c565b91505092915050565b7f455243333532353a207472616e736665722063616c6c6572206973206e6f742060008201527f6f776e6572206e6f7220617070726f7665640000000000000000000000000000602082015250565b60006148ff603283613a67565b915061490a826148a3565b604082019050919050565b6000602082019050818103600083015261492e816148f2565b9050919050565b7f5342543a206f6e6c79206f776e65722063616e206d696e740000000000000000600082015250565b600061496b601883613a67565b915061497682614935565b602082019050919050565b6000602082019050818103600083015261499a8161495e565b9050919050565b7f455243333532353a206f776e657220696e646578206f7574206f6620626f756e60008201527f6473000000000000000000000000000000000000000000000000000000000000602082015250565b60006149fd602283613a67565b9150614a08826149a1565b604082019050919050565b60006020820190508181036000830152614a2c816149f0565b9050919050565b7f596f7520617265206e6f7420617574686f72697a656420746f2063616c6c207460008201527f6869732066756e6374696f6e2e00000000000000000000000000000000000000602082015250565b6000614a8f602d83613a67565b9150614a9a82614a33565b604082019050919050565b60006020820190508181036000830152614abe81614a82565b9050919050565b7f7b227469746c65223a2247726164756174652050726f6a656374205342542200600082015250565b6000614afb601f83614733565b9150614b0682614ac5565b601f82019050919050565b7f222c226465736372697074696f6e223a2250726f6f66206f6620696e63756d6260008201527f656e637922000000000000000000000000000000000000000000000000000000602082015250565b6000614b6d602583614733565b9150614b7882614b11565b602582019050919050565b7f222c22746f6b656e4964223a2200000000000000000000000000000000000000600082015250565b6000614bb9600d83614733565b9150614bc482614b83565b600d82019050919050565b7f222c2272657665616c2041747472223a227b0000000000000000000000000000600082015250565b6000614c05601283614733565b9150614c1082614bcf565b601282019050919050565b7f61747472313a0000000000000000000000000000000000000000000000000000600082015250565b6000614c51600683614733565b9150614c5c82614c1b565b600682019050919050565b7f2c61747472323a00000000000000000000000000000000000000000000000000600082015250565b6000614c9d600783614733565b9150614ca882614c67565b600782019050919050565b7f7d22000000000000000000000000000000000000000000000000000000000000600082015250565b6000614ce9600283614733565b9150614cf482614cb3565b600282019050919050565b7f222c22756e52657665616c2041747472223a0000000000000000000000000000600082015250565b6000614d35601283614733565b9150614d4082614cff565b601282019050919050565b7f222c2250726f6f662044617461223a0000000000000000000000000000000000600082015250565b6000614d81600f83614733565b9150614d8c82614d4b565b600f82019050919050565b7f7d00000000000000000000000000000000000000000000000000000000000000600082015250565b6000614dcd600183614733565b9150614dd882614d97565b600182019050919050565b6000614dee82614aee565b9150614df982614b60565b9150614e0482614bac565b9150614e10828861473e565b9150614e1b82614bf8565b9150614e2682614c44565b9150614e32828761473e565b9150614e3d82614c90565b9150614e49828661473e565b9150614e5482614cdc565b9150614e5f82614d28565b9150614e6b828561473e565b9150614e7682614d74565b9150614e82828461473e565b9150614e8d82614dc0565b91508190509695505050505050565b6000604082019050614eb16000830185613c95565b8181036020830152614ec38184613abc565b90509392505050565b7f455243333532353a20676c6f62616c20696e646578206f7574206f6620626f7560008201527f6e64730000000000000000000000000000000000000000000000000000000000602082015250565b6000614f28602383613a67565b9150614f3382614ecc565b604082019050919050565b60006020820190508181036000830152614f5781614f1b565b9050919050565b7f455243333532353a20696e76616c696420746f6b656e20494400000000000000600082015250565b6000614f94601983613a67565b9150614f9f82614f5e565b602082019050919050565b60006020820190508181036000830152614fc381614f87565b9050919050565b7f455243333532353a2062616c616e636520717565727920666f7220746865207a60008201527f65726f2061646472657373000000000000000000000000000000000000000000602082015250565b6000615026602b83613a67565b915061503182614fca565b604082019050919050565b6000602082019050818103600083015261505581615019565b9050919050565b7f455243333532353a20617070726f76652063616c6c6572206973206e6f74206f60008201527f776e6572206e6f7220617070726f766564000000000000000000000000000000602082015250565b60006150b8603183613a67565b91506150c38261505c565b604082019050919050565b600060208201905081810360008301526150e7816150ab565b9050919050565b60006150fa828561473e565b9150615106828461473e565b91508190509392505050565b7f636f6e74726163742f0000000000000000000000000000000000000000000000600082015250565b6000615148600983614733565b915061515382615112565b600982019050919050565b600061516a828561473e565b91506151758261513b565b9150615181828461473e565b91508190509392505050565b7f5342543a206f6e6c79206f776e65722063616e2067656e20746f6b656e555249600082015250565b60006151c3602083613a67565b91506151ce8261518d565b602082019050919050565b600060208201905081810360008301526151f2816151b6565b9050919050565b61520281613d12565b82525050565b600081519050919050565b600082825260208201905092915050565b6000819050602082019050919050565b61523d81613d12565b82525050565b600061524f8383615234565b60208301905092915050565b6000602082019050919050565b600061527382615208565b61527d8185615213565b935061528883615224565b8060005b838110156152b95781516152a08882615243565b97506152ab8361525b565b92505060018101905061528c565b5085935050505092915050565b600060a0820190506152db6000830188613c95565b6152e860208301876151f9565b6152f560408301866151f9565b61530260608301856151f9565b81810360808301526153148184615268565b90509695505050505050565b60008151905061532f81613b21565b92915050565b60006020828403121561534b5761534a613997565b5b600061535984828501615320565b91505092915050565b60006040820190506153776000830185613c95565b6153846020830184613c95565b9392505050565b7f4e487b7100000000000000000000000000000000000000000000000000000000600052601260045260246000fd5b7f455243333532353a20696e73756666696369656e7420616c6c6f77616e636500600082015250565b60006153f0601f83613a67565b91506153fb826153ba565b602082019050919050565b6000602082019050818103600083015261541f816153e3565b9050919050565b7f4e487b7100000000000000000000000000000000000000000000000000000000600052601160045260246000fd5b600061546082613b17565b915061546b83613b17565b92508282101561547e5761547d615426565b5b828203905092915050565b7f455243333532353a206d696e7420746f20746865207a65726f2061646472657360008201527f7300000000000000000000000000000000000000000000000000000000000000602082015250565b60006154e5602183613a67565b91506154f082615489565b604082019050919050565b60006020820190508181036000830152615514816154d8565b9050919050565b7f455243333532353a2063616e6e6f74206d696e74207a65726f20746f6b656e4960008201527f6400000000000000000000000000000000000000000000000000000000000000602082015250565b6000615577602183613a67565b91506155828261551b565b604082019050919050565b600060208201905081810360008301526155a68161556a565b9050919050565b7f455243333532353a20746f6b656e20616c7265616479206d696e746564000000600082015250565b60006155e3601d83613a67565b91506155ee826155ad565b602082019050919050565b60006020820190508181036000830152615612816155d6565b9050919050565b7f455243333532353a207472616e736665722066726f6d20696e76616c6964207460008201527f6f6b656e20494400000000000000000000000000000000000000000000000000602082015250565b6000615675602783613a67565b915061568082615619565b604082019050919050565b600060208201905081810360008301526156a481615668565b9050919050565b7f455243333532353a207472616e7366657220746f20696e76616c696420746f6b60008201527f656e204944000000000000000000000000000000000000000000000000000000602082015250565b6000615707602583613a67565b9150615712826156ab565b604082019050919050565b60006020820190508181036000830152615736816156fa565b9050919050565b7f455243333532353a20696e73756666696369656e742062616c616e636520666f60008201527f72207472616e7366657200000000000000000000000000000000000000000000602082015250565b6000615799602a83613a67565b91506157a48261573d565b604082019050919050565b600060208201905081810360008301526157c88161578c565b9050919050565b7f455243333532353a207472616e7366657220746f20746f6b656e20776974682060008201527f646966666572656e7420736c6f74000000000000000000000000000000000000602082015250565b600061582b602e83613a67565b9150615836826157cf565b604082019050919050565b6000602082019050818103600083015261585a8161581e565b9050919050565b600061586c82613b17565b915061587783613b17565b9250827fffffffffffffffffffffffffffffffffffffffffffffffffffffffffffffffff038211156158ac576158ab615426565b5b828201905092915050565b7f455243333532353a207472616e736665722072656a656374656420627920455260008201527f4333353235526563656976657200000000000000000000000000000000000000602082015250565b6000615913602d83613a67565b915061591e826158b7565b604082019050919050565b6000602082019050818103600083015261594281615906565b9050919050565b7f455243333532353a207472616e736665722066726f6d20696e76616c6964206f60008201527f776e657200000000000000000000000000000000000000000000000000000000602082015250565b60006159a5602483613a67565b91506159b082615949565b604082019050919050565b600060208201905081810360008301526159d481615998565b9050919050565b7f455243333532353a207472616e7366657220746f20746865207a65726f20616460008201527f6472657373000000000000000000000000000000000000000000000000000000602082015250565b6000615a37602583613a67565b9150615a42826159db565b604082019050919050565b60006020820190508181036000830152615a6681615a2a565b9050919050565b7f455243333532353a20617070726f76652076616c756520746f20746865207a6560008201527f726f206164647265737300000000000000000000000000000000000000000000602082015250565b6000615ac9602a83613a67565b9150615ad482615a6d565b604082019050919050565b60006020820190508181036000830152615af881615abc565b9050919050565b7f455243333532353a20617070726f766520746f2063616c6c6572000000000000600082015250565b6000615b35601a83613a67565b9150615b4082615aff565b602082019050919050565b60006020820190508181036000830152615b6481615b28565b9050919050565b7f455243333532353a207472616e7366657220746f206e6f6e204552433732315260008201527f6563656976657200000000000000000000000000000000000000000000000000602082015250565b6000615bc7602783613a67565b9150615bd282615b6b565b604082019050919050565b60006020820190508181036000830152615bf681615bba565b9050919050565b615c06816139a1565b82525050565b6000602082019050615c216000830184615bfd565b92915050565b600081519050615c36816142c6565b92915050565b600060208284031215615c5257615c51613997565b5b6000615c6084828501615c27565b91505092915050565b600081519050919050565b600082825260208201905092915050565b6000615c9082615c69565b615c9a8185615c74565b9350615caa818560208601613a78565b615cb381613aab565b840191505092915050565b600060a082019050615cd36000830188613bac565b615ce06020830187613c95565b615ced6040830186613c95565b615cfa6060830185613c95565b8181036080830152615d0c8184615c85565b90509695505050505050565b600081519050615d27816139cd565b92915050565b600060208284031215615d4357615d42613997565b5b6000615d5184828501615d18565b91505092915050565b6000615d6582613b17565b91507fffffffffffffffffffffffffffffffffffffffffffffffffffffffffffffffff821415615d9857615d97615426565b5b600182019050919050565b7f4e487b7100000000000000000000000000000000000000000000000000000000600052603160045260246000fd5b6000608082019050615de76000830187613bac565b615df46020830186613bac565b615e016040830185613c95565b8181036060830152615e138184615c85565b905095945050505050565b7f4552433732313a207472616e7366657220746f206e6f6e20455243373231526560008201527f63656976657220696d706c656d656e7465720000000000000000000000000000602082015250565b6000615e7a603283613a67565b9150615e8582615e1e565b604082019050919050565b60006020820190508181036000830152615ea981615e6d565b9050919050565b6000615ebb82613b17565b9150615ec683613b17565b9250817fffffffffffffffffffffffffffffffffffffffffffffffffffffffffffffffff0483118215151615615eff57615efe615426565b5b828202905092915050565b6000615f1582613b17565b91506000821415615f2957615f28615426565b5b600182039050919050565b7f537472696e67733a20686578206c656e67746820696e73756666696369656e74600082015250565b6000615f6a602083613a67565b9150615f7582615f34565b602082019050919050565b60006020820190508181036000830152615f9981615f5d565b905091905056fea2646970667358221220cabf324137ebc6345a929ed19fb16c6b8fbca74cb0792b278488eacfe4e7c33964736f6c63430008090033",
  "immutableReferences": {},
  "source": "//SPDX-License-Identifier:MIT\npragma solidity ^0.8.9;\n\nimport \"@openzeppelin/contracts/utils/Strings.sol\";\nimport \"@openzeppelin/contracts/utils/Base64.sol\";\nimport \"@solvprotocol/erc-3525/ERC3525.sol\";\nimport \"./IdemixOracle.sol\";\n\ncontract SbtGenContract is ERC3525 {\n    using Strings for uint256;\n\n    address public owner;\n    address private idemixOracleAddress;    //oracle\n\n    constructor(\n        address owner_\n    )ERC3525(\"SBT\",\"ERC3525GS\", 18){\n        owner = owner_;\n    }\n\n    // // listcookie\n    // mapping (uint256 => bool) myRequests;\n\n    // \n    event mintSBT(address to, uint256 tokenId);\n    // tokenURI\n    event ReceivedNewTokenURIRequestEvent(uint256 tokenId, uint256 requestId);\n    // TokenURI\n    event TokenURIGenEvent(uint256 tokenId,string tokenURI);\n    // // token\n    // event ReceivedNewTokenVerRequestEvent(uint256 tokenId, uint256 requestId);\n    // // Token\n    // event TokenVerEvent(uint256 tokenId,bool verRes);\n\n    // SBT \n    function mint(\n        address to_,\n        uint256 slot_,\n        uint256 amount_,\n        int name_,\n        int department_,\n        int onBoardingTime_,\n        int[] memory disclosure_,\n        address _oracleAddress\n    ) external returns (uint256) {\n        require(msg.sender == owner, \"SBT: only owner can mint\");\n        uint256 tokenId;\n        tokenId = _mint(to_, slot_, amount_);\n        tokenURI_Request(tokenId, name_, department_, onBoardingTime_, disclosure_, _oracleAddress);\n        return tokenId;\n    }\n\n    // tokenURISBT\n    function tokenURI_Request(\n        uint256 tokenId_,\n        int name_,\n        int department_,\n        int onBoardingTime_,\n        int[] memory disclosure_,\n        address _oracleAddress\n    ) public {\n        require(msg.sender == owner, \"SBT: only owner can gen tokenURI\");\n        idemixOracleAddress = _oracleAddress;\n        uint256 requestId = IdemixOracle(_oracleAddress).getCredGenRequest(tokenId_, name_, department_, onBoardingTime_, disclosure_);\n        // myRequests[requestId] = true;\n        emit ReceivedNewTokenURIRequestEvent(tokenId_, requestId);\n    }\n\n    // tokenURI\n    function tokenURI_Res(\n        uint256 tokenId_,\n        uint256[] memory revealAttr,\n        string memory unRevealAttr,\n        string memory nymCred\n        // uint256 _requestId\n    )public onlyOracle {\n        // require(myRequests[_requestId],\"This request is not in my pending list.\");\n        // delete myRequests[_requestId];\n        string memory tokenURI = string(\n                abi.encodePacked(\n                            '{\"title\":\"Graduate Project SBT\"',\n                            '\",\"description\":\"Proof of incumbency\"',\n                            '\",\"tokenId\":\"',\n                                tokenId_.toString(),\n                            '\",\"reveal Attr\":\"{',\n                                \"attr1:\",revealAttr[0].toString(),\n                                \",attr2:\",revealAttr[1].toString(),\n                            '}\"',\n                            '\",\"unReveal Attr\":',\n                                unRevealAttr,\n                            '\",\"Proof Data\":',  \n                                nymCred,  \n                            \"}\"\n                )\n            );\n        emit TokenURIGenEvent(tokenId_,tokenURI);\n    }\n    \n    // // token\n    // function tokenVer_Request(\n    //     uint256 tokenId_,\n    //     string memory nymCred_,\n    //     address _oracleAddress\n    // ) public {\n    //     // \n    //     idemixOracleAddress = _oracleAddress;\n    //     uint256 requestId = IdemixOracle(_oracleAddress).getCredVerRequest(tokenId_, nymCred_);\n    //     myRequests[requestId] = true;\n    //     emit ReceivedNewTokenVerRequestEvent(tokenId_, requestId);\n    // }\n\n    // // \n    // function tokenVer_Res(\n    //     uint256 tokenId_,\n    //     bool verRes_,\n    //     uint256 _requestId\n    // )public onlyOracle {\n    //     require(myRequests[_requestId],\"This request is not in my pending list.\");\n    //     delete myRequests[_requestId];\n    //     emit TokenVerEvent(tokenId_, verRes_);\n    // }\n\n    // modifier\n    modifier onlyOracle {\n        require(msg.sender == idemixOracleAddress,\"You are not authorized to call this function.\"); // owner\n        _; // revert\n    }\n\n}",
  "sourcePath": "/home/xwk/GraduationProject/sourcecode/SBT-Oracle/contracts/SbtGenContract.sol",
  "compiler": {
    "name": "solc",
    "version": "0.8.9+commit.e5eed63a.Emscripten.clang"
  },
  "schemaVersion": "3.4.13",
  "updatedAt": "2023-04-24T02:27:10.173Z",
  "networkType": "ethereum",
  "devdoc": {
    "kind": "dev",
    "methods": {
      "contractURI()": {
        "details": "This function SHOULD return the URI for this contract in JSON format, starting with  header `data:application/json;`.  See https://eips.ethereum.org/EIPS/eip-3525 for the JSON schema for contract URI.",
        "returns": {
          "_0": "The JSON formatted URI of the current ERC3525 contract"
        }
      },
      "name()": {
        "details": "Returns the token collection name."
      },
      "supportsInterface(bytes4)": {
        "details": "Returns true if this contract implements the interface defined by `interfaceId`. See the corresponding https://eips.ethereum.org/EIPS/eip-165#how-interfaces-are-identified[EIP section] to learn more about how these ids are created. This function call must use less than 30 000 gas."
      },
      "symbol()": {
        "details": "Returns the token collection symbol."
      },
      "tokenURI(uint256)": {
        "details": "Returns the Uniform Resource Identifier (URI) for `tokenId` token."
      },
      "totalSupply()": {
        "returns": {
          "_0": "A count of valid NFTs tracked by this contract, where each one of  them has an assigned and queryable owner not equal to the zero address"
        }
      },
      "valueDecimals()": {
        "details": "Returns the number of decimals the token uses for value."
      }
    },
    "version": 1
  },
  "userdoc": {
    "kind": "user",
    "methods": {
      "contractURI()": {
        "notice": "Returns the Uniform Resource Identifier (URI) for the current ERC3525 contract."
      },
      "totalSupply()": {
        "notice": "Count NFTs tracked by this contract"
      }
    },
    "version": 1
  }
}