{
  "contractName": "SbtVerifyContract",
  "abi": [
    {
      "anonymous": false,
      "inputs": [
        {
          "indexed": false,
          "internalType": "uint256",
          "name": "tokenId",
          "type": "uint256"
        },
        {
          "indexed": false,
          "internalType": "uint256",
          "name": "requestId",
          "type": "uint256"
        }
      ],
      "name": "ReceivedNewTokenVerRequestEvent",
      "type": "event"
    },
    {
      "anonymous": false,
      "inputs": [
        {
          "indexed": false,
          "internalType": "uint256",
          "name": "tokenId",
          "type": "uint256"
        },
        {
          "indexed": false,
          "internalType": "bool",
          "name": "verRes",
          "type": "bool"
        }
      ],
      "name": "TokenVerEvent",
      "type": "event"
    },
    {
      "inputs": [
        {
          "internalType": "uint256",
          "name": "tokenId_",
          "type": "uint256"
        },
        {
          "internalType": "string",
          "name": "nymCred_",
          "type": "string"
        },
        {
          "internalType": "address",
          "name": "_oracleAddress",
          "type": "address"
        }
      ],
      "name": "tokenVer_Request",
      "outputs": [],
      "stateMutability": "nonpayable",
      "type": "function"
    },
    {
      "inputs": [
        {
          "internalType": "uint256",
          "name": "tokenId_",
          "type": "uint256"
        },
        {
          "internalType": "bool",
          "name": "verRes_",
          "type": "bool"
        }
      ],
      "name": "tokenVer_Res",
      "outputs": [],
      "stateMutability": "nonpayable",
      "type": "function"
    }
  ],
  "bytecode": "0x608060405234801561001057600080fd5b50610755806100206000396000f3fe608060405234801561001057600080fd5b50600436106100365760003560e01c8063ba26d50f1461003b578063d56408f614610057575b600080fd5b6100556004803603810190610050919061043c565b610073565b005b610071600480360381019061006c91906104e3565b610183565b005b806000806101000a81548173ffffffffffffffffffffffffffffffffffffffff021916908373ffffffffffffffffffffffffffffffffffffffff16021790555060008173ffffffffffffffffffffffffffffffffffffffff1663871e893e85856040518363ffffffff1660e01b81526004016100f09291906105ba565b602060405180830381600087803b15801561010a57600080fd5b505af115801561011e573d6000803e3d6000fd5b505050506040513d601f19601f8201168201806040525081019061014291906105ff565b90507fa14615fd49dc2222489394ca345a5182bbffab58fda3eee3ca00d4b5d1f3f667848260405161017592919061062c565b60405180910390a150505050565b60008054906101000a900473ffffffffffffffffffffffffffffffffffffffff1673ffffffffffffffffffffffffffffffffffffffff163373ffffffffffffffffffffffffffffffffffffffff1614610211576040517f08c379a0000000000000000000000000000000000000000000000000000000008152600401610208906106c7565b60405180910390fd5b7f05eb720a1cc501b99fca2aefe1e20a1360804e87d668edf7dc3e76aaee7a482082826040516102429291906106f6565b60405180910390a15050565b6000604051905090565b600080fd5b600080fd5b6000819050919050565b61027581610262565b811461028057600080fd5b50565b6000813590506102928161026c565b92915050565b600080fd5b600080fd5b6000601f19601f8301169050919050565b7f4e487b7100000000000000000000000000000000000000000000000000000000600052604160045260246000fd5b6102eb826102a2565b810181811067ffffffffffffffff8211171561030a576103096102b3565b5b80604052505050565b600061031d61024e565b905061032982826102e2565b919050565b600067ffffffffffffffff821115610349576103486102b3565b5b610352826102a2565b9050602081019050919050565b82818337600083830152505050565b600061038161037c8461032e565b610313565b90508281526020810184848401111561039d5761039c61029d565b5b6103a884828561035f565b509392505050565b600082601f8301126103c5576103c4610298565b5b81356103d584826020860161036e565b91505092915050565b600073ffffffffffffffffffffffffffffffffffffffff82169050919050565b6000610409826103de565b9050919050565b610419816103fe565b811461042457600080fd5b50565b60008135905061043681610410565b92915050565b60008060006060848603121561045557610454610258565b5b600061046386828701610283565b935050602084013567ffffffffffffffff8111156104845761048361025d565b5b610490868287016103b0565b92505060406104a186828701610427565b9150509250925092565b60008115159050919050565b6104c0816104ab565b81146104cb57600080fd5b50565b6000813590506104dd816104b7565b92915050565b600080604083850312156104fa576104f9610258565b5b600061050885828601610283565b9250506020610519858286016104ce565b9150509250929050565b61052c81610262565b82525050565b600081519050919050565b600082825260208201905092915050565b60005b8381101561056c578082015181840152602081019050610551565b8381111561057b576000848401525b50505050565b600061058c82610532565b610596818561053d565b93506105a681856020860161054e565b6105af816102a2565b840191505092915050565b60006040820190506105cf6000830185610523565b81810360208301526105e18184610581565b90509392505050565b6000815190506105f98161026c565b92915050565b60006020828403121561061557610614610258565b5b6000610623848285016105ea565b91505092915050565b60006040820190506106416000830185610523565b61064e6020830184610523565b9392505050565b7f596f7520617265206e6f7420617574686f72697a656420746f2063616c6c207460008201527f6869732066756e6374696f6e2e00000000000000000000000000000000000000602082015250565b60006106b1602d8361053d565b91506106bc82610655565b604082019050919050565b600060208201905081810360008301526106e0816106a4565b9050919050565b6106f0816104ab565b82525050565b600060408201905061070b6000830185610523565b61071860208301846106e7565b939250505056fea2646970667358221220a1f0a5dbcb846becc9f5864718514b0b8a11788f31fdce412294209399a7ff4a64736f6c63430008090033",
  "immutableReferences": {},
  "source": "//SPDX-License-Identifier:MIT\npragma solidity ^0.8.9;\n\nimport \"@openzeppelin/contracts/utils/Strings.sol\";\nimport \"./IdemixOracle.sol\";\n\ncontract SbtVerifyContract {\n    using Strings for uint256;\n\n    address private idemixOracleAddress;    //oracle\n\n    // token\n    event ReceivedNewTokenVerRequestEvent(uint256 tokenId, uint256 requestId);\n    // Token\n    event TokenVerEvent(uint256 tokenId,bool verRes);\n\n    // token\n    function tokenVer_Request(\n        uint256 tokenId_,\n        string memory nymCred_,\n        address _oracleAddress\n    ) public {\n        // \n        idemixOracleAddress = _oracleAddress;\n        uint256 requestId = IdemixOracle(_oracleAddress).getCredVerRequest(tokenId_, nymCred_);\n        // myRequests[requestId] = true;\n        emit ReceivedNewTokenVerRequestEvent(tokenId_, requestId);\n    }\n\n    // \n    function tokenVer_Res(\n        uint256 tokenId_,\n        bool verRes_\n        // uint256 _requestId\n    )public onlyOracle {\n        // require(myRequests[_requestId],\"This request is not in my pending list.\");\n        // delete myRequests[_requestId];\n        emit TokenVerEvent(tokenId_, verRes_);\n    }\n\n    // modifier\n    modifier onlyOracle {\n        require(msg.sender == idemixOracleAddress,\"You are not authorized to call this function.\"); // owner\n        _; // revert\n    }\n}",
  "sourcePath": "/home/xwk/GraduationProject/sourcecode/SBT-Oracle/contracts/SbtVerifyContract.sol",
  "compiler": {
    "name": "solc",
    "version": "0.8.9+commit.e5eed63a.Emscripten.clang"
  },
  "schemaVersion": "3.4.13",
  "updatedAt": "2023-04-24T02:27:11.743Z",
  "networkType": "ethereum",
  "devdoc": {
    "kind": "dev",
    "methods": {},
    "version": 1
  },
  "userdoc": {
    "kind": "user",
    "methods": {},
    "version": 1
  }
}